{
  "contractName": "Accumulator",
  "abi": [
    {
      "inputs": [],
      "stateMutability": "nonpayable",
      "type": "constructor"
    },
    {
      "anonymous": false,
      "inputs": [
        {
          "indexed": false,
          "internalType": "uint256[2]",
          "name": "W",
          "type": "uint256[2]"
        },
        {
          "indexed": false,
          "internalType": "uint256",
          "name": "request_id",
          "type": "uint256"
        },
        {
          "indexed": false,
          "internalType": "uint256",
          "name": "kr",
          "type": "uint256"
        },
        {
          "indexed": false,
          "internalType": "uint256",
          "name": "timestamp",
          "type": "uint256"
        }
      ],
      "name": "send_W_kr",
      "type": "event"
    },
    {
      "anonymous": false,
      "inputs": [
        {
          "indexed": false,
          "internalType": "uint256",
          "name": "kr",
          "type": "uint256"
        },
        {
          "indexed": false,
          "internalType": "uint256[]",
          "name": "W",
          "type": "uint256[]"
        },
        {
          "indexed": false,
          "internalType": "uint256[]",
          "name": "H",
          "type": "uint256[]"
        },
        {
          "indexed": false,
          "internalType": "uint256[]",
          "name": "S",
          "type": "uint256[]"
        },
        {
          "indexed": false,
          "internalType": "uint256[2][]",
          "name": "cm",
          "type": "uint256[2][]"
        }
      ],
      "name": "send_self_revocation",
      "type": "event"
    },
    {
      "anonymous": false,
      "inputs": [
        {
          "components": [
            {
              "internalType": "uint256",
              "name": "X",
              "type": "uint256"
            },
            {
              "internalType": "uint256",
              "name": "Y",
              "type": "uint256"
            }
          ],
          "indexed": false,
          "internalType": "struct G.G1Point",
          "name": "delta",
          "type": "tuple"
        }
      ],
      "name": "send_updated_witness",
      "type": "event"
    },
    {
      "inputs": [
        {
          "internalType": "uint256[]",
          "name": "indexes",
          "type": "uint256[]"
        }
      ],
      "name": "lagrange_basis",
      "outputs": [
        {
          "internalType": "uint256[]",
          "name": "",
          "type": "uint256[]"
        }
      ],
      "stateMutability": "view",
      "type": "function",
      "constant": true
    },
    {
      "inputs": [],
      "name": "genAggregatedYa",
      "outputs": [
        {
          "components": [
            {
              "internalType": "uint256",
              "name": "X",
              "type": "uint256"
            },
            {
              "internalType": "uint256",
              "name": "Y",
              "type": "uint256"
            }
          ],
          "internalType": "struct G.G1Point",
          "name": "",
          "type": "tuple"
        }
      ],
      "stateMutability": "view",
      "type": "function",
      "constant": true
    },
    {
      "inputs": [],
      "name": "genAggregatedYa_2",
      "outputs": [
        {
          "internalType": "uint256",
          "name": "",
          "type": "uint256"
        }
      ],
      "stateMutability": "view",
      "type": "function",
      "constant": true
    },
    {
      "inputs": [
        {
          "internalType": "uint256",
          "name": "ya",
          "type": "uint256"
        },
        {
          "internalType": "uint256",
          "name": "kr",
          "type": "uint256"
        }
      ],
      "name": "updateDelta",
      "outputs": [],
      "stateMutability": "nonpayable",
      "type": "function"
    },
    {
      "inputs": [],
      "name": "get_delta",
      "outputs": [
        {
          "internalType": "uint256",
          "name": "",
          "type": "uint256"
        },
        {
          "internalType": "uint256",
          "name": "",
          "type": "uint256"
        }
      ],
      "stateMutability": "view",
      "type": "function",
      "constant": true
    },
    {
      "inputs": [
        {
          "internalType": "uint256",
          "name": "id",
          "type": "uint256"
        },
        {
          "internalType": "uint256",
          "name": "share",
          "type": "uint256"
        },
        {
          "internalType": "uint256",
          "name": "request_id",
          "type": "uint256"
        }
      ],
      "name": "recieve_ya_share_revocation",
      "outputs": [],
      "stateMutability": "nonpayable",
      "type": "function"
    },
    {
      "inputs": [
        {
          "internalType": "uint256",
          "name": "kr",
          "type": "uint256"
        },
        {
          "components": [
            {
              "internalType": "uint256",
              "name": "X",
              "type": "uint256"
            },
            {
              "internalType": "uint256",
              "name": "Y",
              "type": "uint256"
            }
          ],
          "internalType": "struct G.G1Point",
          "name": "witness",
          "type": "tuple"
        },
        {
          "components": [
            {
              "internalType": "uint256",
              "name": "X",
              "type": "uint256"
            },
            {
              "internalType": "uint256",
              "name": "Y",
              "type": "uint256"
            }
          ],
          "internalType": "struct G.G1Point",
          "name": "H",
          "type": "tuple"
        },
        {
          "components": [
            {
              "internalType": "uint256",
              "name": "X",
              "type": "uint256"
            },
            {
              "internalType": "uint256",
              "name": "Y",
              "type": "uint256"
            }
          ],
          "internalType": "struct G.G1Point",
          "name": "S",
          "type": "tuple"
        },
        {
          "components": [
            {
              "internalType": "uint256",
              "name": "X",
              "type": "uint256"
            },
            {
              "internalType": "uint256",
              "name": "Y",
              "type": "uint256"
            }
          ],
          "internalType": "struct G.G1Point[]",
          "name": "commitments",
          "type": "tuple[]"
        }
      ],
      "name": "verify_revocation_request",
      "outputs": [],
      "stateMutability": "nonpayable",
      "type": "function"
    },
    {
      "inputs": [
        {
          "internalType": "uint256",
          "name": "id",
          "type": "uint256"
        },
        {
          "components": [
            {
              "internalType": "uint256",
              "name": "X",
              "type": "uint256"
            },
            {
              "internalType": "uint256",
              "name": "Y",
              "type": "uint256"
            }
          ],
          "internalType": "struct G.G1Point",
          "name": "share",
          "type": "tuple"
        },
        {
          "internalType": "uint256",
          "name": "request_id",
          "type": "uint256"
        }
      ],
      "name": "recieve_ya_share",
      "outputs": [],
      "stateMutability": "nonpayable",
      "type": "function"
    },
    {
      "inputs": [
        {
          "internalType": "uint256",
          "name": "time",
          "type": "uint256"
        }
      ],
      "name": "updateWitness",
      "outputs": [
        {
          "internalType": "uint256[]",
          "name": "",
          "type": "uint256[]"
        },
        {
          "internalType": "uint256[]",
          "name": "",
          "type": "uint256[]"
        },
        {
          "internalType": "uint256",
          "name": "",
          "type": "uint256"
        }
      ],
      "stateMutability": "view",
      "type": "function",
      "constant": true
    },
    {
      "inputs": [
        {
          "internalType": "uint256",
          "name": "_no",
          "type": "uint256"
        },
        {
          "internalType": "uint256",
          "name": "_to",
          "type": "uint256"
        },
        {
          "internalType": "uint256",
          "name": "_nv",
          "type": "uint256"
        },
        {
          "internalType": "uint256",
          "name": "_tv",
          "type": "uint256"
        }
      ],
      "name": "set_accumulator",
      "outputs": [],
      "stateMutability": "nonpayable",
      "type": "function"
    },
    {
      "inputs": [
        {
          "internalType": "uint256[]",
          "name": "array",
          "type": "uint256[]"
        },
        {
          "internalType": "uint256",
          "name": "x",
          "type": "uint256"
        }
      ],
      "name": "gen_share",
      "outputs": [
        {
          "internalType": "uint256",
          "name": "",
          "type": "uint256"
        }
      ],
      "stateMutability": "view",
      "type": "function",
      "constant": true
    },
    {
      "inputs": [
        {
          "components": [
            {
              "internalType": "uint256",
              "name": "X",
              "type": "uint256"
            },
            {
              "internalType": "uint256",
              "name": "Y",
              "type": "uint256"
            }
          ],
          "internalType": "struct G.G1Point",
          "name": "cm",
          "type": "tuple"
        }
      ],
      "name": "generate_kr_shares",
      "outputs": [
        {
          "internalType": "uint256[]",
          "name": "",
          "type": "uint256[]"
        },
        {
          "internalType": "uint256[]",
          "name": "",
          "type": "uint256[]"
        }
      ],
      "stateMutability": "nonpayable",
      "type": "function"
    }
  ],
  "bytecode": "0x6080604052600060035534801561001557600080fd5b50600080546001600160a01b031916331790556121ab806100376000396000f3fe608060405234801561001057600080fd5b50600436106100b45760003560e01c80639966fba6116100715780639966fba61461015b57806399cb40c11461016e578063af7fbf9314610189578063cdb1ad75146101ab578063df96e673146101ce578063f5bc91fd146101d657600080fd5b8063081378cb146100b95780630a9665da146100ce5780633553964a146100f457806342afaa4a146101075780638e9532c9146101275780639162c47d1461013a575b600080fd5b6100cc6100c7366004611b42565b6101e9565b005b6100e16100dc366004611c38565b610242565b6040519081526020015b60405180910390f35b6100cc610102366004611c7c565b6102cb565b61011a610115366004611cae565b61036e565b6040516100eb9190611d25565b6100cc610135366004611d8d565b610509565b61014d610148366004611e6a565b6107aa565b6040516100eb929190611e86565b6100cc610169366004611eab565b610a6f565b600154600254604080519283526020830191909152016100eb565b61019c610197366004611ed7565b610bc6565b6040516100eb93929190611ef0565b6101b3610dd7565b604080518251815260209283015192810192909252016100eb565b6100e16110f1565b6100cc6101e4366004611f26565b61128a565b60408051808201909152600154815260025460208201526102329061022d600080516020612156833981519152858508600080516020612156833981519152611457565b6114a8565b8051600155602001516002555050565b600080600080516020612156833981519152815b85518110156102b757818061026d5761026d611f5c565b828061027b5761027b611f5c565b610286878486611506565b88848151811061029857610298611f72565b60200260200101510984089250806102af81611f9e565b915050610256565b506102c28183611fb7565b95945050505050565b60408051808201825260008082526020918201528151808301909252600180835260029290910182905280805590805560048590556006839055600584905560078290555b600454811161036757604080518082018252600080825260208083018290528482526008905291909120610345916002611a26565b506000818152600960205260408120558061035f81611f9e565b915050610310565b5050505050565b606060006000805160206121568339815191529050600083516001600160401b0381111561039e5761039e611b64565b6040519080825280602002602001820160405280156103c7578160200160208202803683370190505b50905060005b84518110156105015760018060005b87518110156104b35760008885815181106103f9576103f9611f72565b60200260200101519050600089838151811061041757610417611f72565b602002602001015190508181111561045d57878061043757610437611f5c565b8186099450878061044a5761044a611f5c565b6104548383611fd9565b8509935061049e565b8181101561049e57878061047357610473611f5c565b8561047e838b611fd9565b099450878061048f5761048f611f5c565b6104998284611fd9565b850993505b505080806104ab90611f9e565b9150506103dc565b5084806104c2576104c2611f5c565b6104cc8287611457565b83098484815181106104e0576104e0611f72565b602002602001018181525050505080806104f990611f9e565b9150506103cd565b509392505050565b604080516002808252606082018352600092602083019080368337505060408051600280825260608201835293945060009390925090602083019080368337505060408051600280825260608201835293945060009390925090602083019080368337019050509050600084516001600160401b0381111561058d5761058d611b64565b6040519080825280602002602001820160405280156105c657816020015b6105b3611a69565b8152602001906001900390816105ab5790505b5090508760000151846000815181106105e1576105e1611f72565b60200260200101818152505087602001518460018151811061060557610605611f72565b60200260200101818152505086600001518360008151811061062957610629611f72565b60200260200101818152505086602001518360018151811061064d5761064d611f72565b60200260200101818152505085600001518260008151811061067157610671611f72565b60200260200101818152505085602001518260018151811061069557610695611f72565b60200260200101818152505060005b855181101561075f578581815181106106bf576106bf611f72565b6020026020010151600001518282815181106106dd576106dd611f72565b60200260200101516000600281106106f7576106f7611f72565b6020020152855186908290811061071057610710611f72565b60200260200101516020015182828151811061072e5761072e611f72565b602002602001015160016002811061074857610748611f72565b60200201528061075781611f9e565b9150506106a4565b507fa62578cd8b822947c7ab22042ed84a3593e84ef57ab4f33e43a05f98278229018985858585604051610797959493929190612013565b60405180910390a1505050505050505050565b60608060006007546001600160401b038111156107c9576107c9611b64565b6040519080825280602002602001820160405280156107f2578160200160208202803683370190505b50905060006005546001600160401b0381111561081157610811611b64565b60405190808252806020026020018201604052801561083a578160200160208202803683370190505b50905060006006546001600160401b0381111561085957610859611b64565b604051908082528060200260200182016040528015610882578160200160208202803683370190505b50905060006004546001600160401b038111156108a1576108a1611b64565b6040519080825280602002602001820160405280156108ca578160200160208202803683370190505b50905060006108d761156c565b905080600a60006108e78b6115ec565b815260200190815260200160002081905550808560008151811061090d5761090d611f72565b602002602001018181525050808460008151811061092d5761092d611f72565b602090810291909101015260015b60075481101561097c5761094d61156c565b86828151811061095f5761095f611f72565b60209081029190910101528061097481611f9e565b91505061093b565b5060015b6005548110156109c15761099261156c565b8582815181106109a4576109a4611f72565b6020908102919091010152806109b981611f9e565b915050610980565b5060015b6006548111610a11576109d88682610242565b846109e4600184611fd9565b815181106109f4576109f4611f72565b602090810291909101015280610a0981611f9e565b9150506109c5565b5060015b6004548111610a6157610a288582610242565b83610a34600184611fd9565b81518110610a4457610a44611f72565b602090810291909101015280610a5981611f9e565b915050610a15565b509197909650945050505050565b600083815260096020526040812083905560015b6004548111610ac05760008181526009602052604090205415610aae5781610aaa81611f9e565b9250505b80610ab881611f9e565b915050610a83565b506005548103610bc0576000610ad46110f1565b6000848152600a6020526040902054909150610af19082906101e9565b6040805180820182526000858152600a60209081529281205482524292820192909252600d80546001810182559252610b529160029081027fd7b6990105719101dabeb77144f2a3385c8033acd3af97e9423a695e81ad1eb5019190611a87565b5060015b6004548111610b805760008181526009602052604081205580610b7881611f9e565b915050610b56565b5060408051600154815260025460208201527ffb3690ec029e480da74b4f8fe3ba40ed8957043e47397e09aa721519b4dc996d91015b60405180910390a1505b50505050565b606080600080600c805490506001600160401b03811115610be957610be9611b64565b604051908082528060200260200182016040528015610c12578160200160208202803683370190505b50600d549091506000906001600160401b03811115610c3357610c33611b64565b604051908082528060200260200182016040528015610c5c578160200160208202803683370190505b5090506000806001600c80549050610c749190611fd9565b90505b87600c8281548110610c8b57610c8b611f72565b9060005260206000209060020201600160028110610cab57610cab611f72565b015410610d1357600c8181548110610cc557610cc5611f72565b6000918252602082206002909102010154848381518110610ce857610ce8611f72565b602090810291909101015281610cfd81611f9e565b9250508080610d0b906120a1565b915050610c77565b5050600d546000908190610d2990600190611fd9565b90505b87600d8281548110610d4057610d40611f72565b9060005260206000209060020201600160028110610d6057610d60611f72565b015410610dc857600d8181548110610d7a57610d7a611f72565b6000918252602082206002909102010154838381518110610d9d57610d9d611f72565b602090810291909101015281610db281611f9e565b9250508080610dc0906120a1565b915050610d2c565b50919690955042945092505050565b604080518082019091526000808252602082015260006005546001600160401b03811115610e0757610e07611b64565b604051908082528060200260200182016040528015610e30578160200160208202803683370190505b50905060006005546001600160401b03811115610e4f57610e4f611b64565b604051908082528060200260200182016040528015610e8857816020015b610e75611a69565b815260200190600190039081610e6d5790505b509050600060015b6004548111610f635760008181526008602052604090205415801590610ec6575060008181526008602052604090206001015415155b15610f515780848381518110610ede57610ede611f72565b602090810291909101810191909152600082815260089091526040908190208151808301928390529160029082845b815481526020019060010190808311610f0d575050505050838381518110610f3757610f37611f72565b60200260200101819052508180610f4d90611f9e565b9250505b80610f5b81611f9e565b915050610e90565b506000610f6f8461036e565b9050610f8e604051806040016040528060008152602001600081525090565b83600081518110610fa157610fa1611f72565b6020026020010151600060028110610fbb57610fbb611f72565b6020020151815283518490600090610fd557610fd5611f72565b6020026020010151600160028110610fef57610fef611f72565b6020020151816020018181525050611021818360008151811061101457611014611f72565b60200260200101516114a8565b905060015b85518110156110e757604080518082019091526000808252602082015285828151811061105557611055611f72565b602002602001015160006002811061106f5761106f611f72565b60200201518152855186908390811061108a5761108a611f72565b60200260200101516001600281106110a4576110a4611f72565b60200201518160200181815250506110d1836110cc8387868151811061101457611014611f72565b61174f565b92505080806110df90611f9e565b915050611026565b5095945050505050565b6000806005546001600160401b0381111561110e5761110e611b64565b604051908082528060200260200182016040528015611137578160200160208202803683370190505b50905060006005546001600160401b0381111561115657611156611b64565b60405190808252806020026020018201604052801561117f578160200160208202803683370190505b509050600060015b6004548111611214576000818152600960205260409020541561120257808483815181106111b7576111b7611f72565b60200260200101818152505060096000828152602001908152602001600020548383815181106111e9576111e9611f72565b6020908102919091010152816111fe81611f9e565b9250505b8061120c81611f9e565b915050611187565b5060006112208461036e565b90506000805b85518110156110e7576000805160206121568339815191528084838151811061125157611251611f72565b602002602001015187848151811061126b5761126b611f72565b602002602001015109830891508061128281611f9e565b915050611226565b6000818152600b60205260409020546001036112a557505050565b815160008481526008602090815260408220928355840151600192830155905b600454811161132057600081815260086020526040902054158015906112fb575060008181526008602052604090206001015415155b1561130e578161130a81611f9e565b9250505b8061131881611f9e565b9150506112c5565b506005548103610bc0576040805180820190915260015481526002546020820152611349610dd7565b805160019081556020909101516002555b60045481116113a25760408051808201825260008082526020808301829052848252600890529190912061138f916002611a26565b508061139a81611f9e565b91505061135a565b506040805180820182526000858152600a60209081529281205482524292820192909252600c805460018101825592526114049160029081027fdf6966c971051c3d54ec59162606531493a51404a002842f56009d7e5cf4a8c7019190611a87565b506000838152600b6020908152604080832060019055600a909152908190205490517f7948d82149f8d60641c66dbfe847345f457d59abb84520929a5d79ecce418c0a91610bb6918491879142906120b8565b60008060405160208152602080820152602060408201528460608201526002840360808201528360a082015260208160c08360056107d05a03fa905192509050806114a157600080fd5b5092915050565b60408051808201909152600080825260208201526114c4611ab5565b835181526020808501519082015260408101839052600060608360808460076107d05a03fa905080806114f357fe5b50806114fe57600080fd5b505092915050565b600080611511611ad3565b611519611af1565b602080825281810181905260408201819052606082018890526080820187905260a082018690528260c08360056107d05a03fa9250828061155657fe5b508261156157600080fd5b505195945050505050565b600380546000918261157d83611f9e565b9091555050600354604080514260208201526bffffffffffffffffffffffff193360601b16918101919091526054810191909152600080516020612156833981519152906074016040516020818303038152906040528051906020012060001c6115e79190611fb7565b905090565b6000806115f8836117a5565b805160208201516040805181815260608101825293945091929091839183916000919060208201818036833701905050905060005b60208110156116875783816020811061164857611648611f72565b1a60f81b82828151811061165e5761165e611f72565b60200101906001600160f81b031916908160001a9053508061167f81611f9e565b91505061162d565b5060205b60408110156116ef57826116a0602083611fd9565b602081106116b0576116b0611f72565b1a60f81b8282815181106116c6576116c6611f72565b60200101906001600160f81b031916908160001a905350806116e781611f9e565b91505061168b565b50600060028260405161170291906120e1565b602060405180830381855afa15801561171f573d6000803e3d6000fd5b5050506040513d601f19601f82011682018060405250810190611742919061211c565b9998505050505050505050565b604080518082019091526000808252602082015261176b611b0f565b8351815260208085015181830152835160408301528301516060808301919091526000908360c08460066107d05a03fa905080806114f357fe5b604080518082018252600080825260208083018290528451908501518451858152606081018652939491939092849284929060208201818036833701905050905060005b60208110156118435783816020811061180457611804611f72565b1a60f81b82828151811061181a5761181a611f72565b60200101906001600160f81b031916908160001a9053508061183b81611f9e565b9150506117e9565b5060205b60408110156118ab578261185c602083611fd9565b6020811061186c5761186c611f72565b1a60f81b82828151811061188257611882611f72565b60200101906001600160f81b031916908160001a905350806118a381611f9e565b915050611847565b5060006002826040516118be91906120e1565b602060405180830381855afa1580156118db573d6000803e3d6000fd5b5050506040513d601f19601f820116820180604052508101906118fe919061211c565b905061190981611915565b98975050505050505050565b60408051808201909152600080825260208201526000808061194560008051602061215683398151915286611fb7565b90505b611951816119a4565b9093509150600080516020612136833981519152828309830361198a576040805180820190915290815260208101919091529392505050565b600080516020612136833981519152600182089050611948565b60008080600080516020612136833981519152600360008051602061213683398151915286600080516020612136833981519152888909090890506000611a1a827f0c19139cb84c680a6e14116da060561765e05aa45a1c72a34f082305b61f3f52600080516020612136833981519152611506565b91959194509092505050565b8260028101928215611a59579160200282015b82811115611a59578251829060ff16905591602001919060010190611a39565b50611a65929150611b2d565b5090565b60405180604001604052806002906020820280368337509192915050565b8260028101928215611a59579160200282015b82811115611a59578251825591602001919060010190611a9a565b60405180606001604052806003906020820280368337509192915050565b60405180602001604052806001906020820280368337509192915050565b6040518060c001604052806006906020820280368337509192915050565b60405180608001604052806004906020820280368337509192915050565b5b80821115611a655760008155600101611b2e565b60008060408385031215611b5557600080fd5b50508035926020909101359150565b634e487b7160e01b600052604160045260246000fd5b604051601f8201601f191681016001600160401b0381118282101715611ba257611ba2611b64565b604052919050565b60006001600160401b03821115611bc357611bc3611b64565b5060051b60200190565b600082601f830112611bde57600080fd5b81356020611bf3611bee83611baa565b611b7a565b82815260059290921b84018101918181019086841115611c1257600080fd5b8286015b84811015611c2d5780358352918301918301611c16565b509695505050505050565b60008060408385031215611c4b57600080fd5b82356001600160401b03811115611c6157600080fd5b611c6d85828601611bcd565b95602094909401359450505050565b60008060008060808587031215611c9257600080fd5b5050823594602084013594506040840135936060013592509050565b600060208284031215611cc057600080fd5b81356001600160401b03811115611cd657600080fd5b611ce284828501611bcd565b949350505050565b600081518084526020808501945080840160005b83811015611d1a57815187529582019590820190600101611cfe565b509495945050505050565b602081526000611d386020830184611cea565b9392505050565b600060408284031215611d5157600080fd5b604051604081018181106001600160401b0382111715611d7357611d73611b64565b604052823581526020928301359281019290925250919050565b60008060008060006101008688031215611da657600080fd5b853594506020611db888828901611d3f565b9450611dc78860608901611d3f565b9350611dd68860a08901611d3f565b925060e08701356001600160401b03811115611df157600080fd5b8701601f81018913611e0257600080fd5b8035611e10611bee82611baa565b81815260069190911b8201830190838101908b831115611e2f57600080fd5b928401925b82841015611e5857611e468c85611d3f565b82528482019150604084019350611e34565b80955050505050509295509295909350565b600060408284031215611e7c57600080fd5b611d388383611d3f565b604081526000611e996040830185611cea565b82810360208401526102c28185611cea565b600080600060608486031215611ec057600080fd5b505081359360208301359350604090920135919050565b600060208284031215611ee957600080fd5b5035919050565b606081526000611f036060830186611cea565b8281036020840152611f158186611cea565b915050826040830152949350505050565b600080600060808486031215611f3b57600080fd5b83359250611f4c8560208601611d3f565b9150606084013590509250925092565b634e487b7160e01b600052601260045260246000fd5b634e487b7160e01b600052603260045260246000fd5b634e487b7160e01b600052601160045260246000fd5b600060018201611fb057611fb0611f88565b5060010190565b600082611fd457634e487b7160e01b600052601260045260246000fd5b500690565b600082821015611feb57611feb611f88565b500390565b8060005b6002811015610bc0578151845260209384019390910190600101611ff4565b8581526000602060a08184015261202d60a0840188611cea565b6040848203818601526120408289611cea565b915084820360608601526120548288611cea565b8581036080870152865180825284880193509084019060005b8181101561209057612080838651611ff0565b938501939183019160010161206d565b50909b9a5050505050505050505050565b6000816120b0576120b0611f88565b506000190190565b60a081016120c68287611ff0565b84604083015283606083015282608083015295945050505050565b6000825160005b8181101561210257602081860181015185830152016120e8565b81811115612111576000828501525b509190910192915050565b60006020828403121561212e57600080fd5b505191905056fe30644e72e131a029b85045b68181585d97816a916871ca8d3c208c16d87cfd4730644e72e131a029b85045b68181585d2833e84879b9709143e1f593f0000001a26469706673582212204e436c0e5b7d78d701400ee6db7e5beeeeb89819a0b2f256cc0b9fca4c6097a864736f6c634300080d0033",
  "immutableReferences": {},
  "source": "// SPDX-License-Identifier: GPL-3.0\npragma solidity >=0.7.0 <0.9.0;\nimport { G } from \"../libraries/G.sol\";\ncontract Accumulator{\n\n    address private owner;\n    G.G1Point private delta;\n    uint randNonce = 0;\n    uint private no;\n    uint private to;\n    uint private nv;\n    uint private tv;\n    //uint256[] private validators_share;\n    //uint256[] private openers_share;\n    mapping(uint => uint256[2]) private accumulator_key_shares;\n    mapping(uint => uint256) private accumulator_key_shares_2;\n    mapping(uint256 => uint256) private id_kr;\n    mapping(uint256 => uint256) private flag;\n    uint256[2][] whitelist;\n    uint256[2][] blacklist;\n    constructor() {\n        owner = msg.sender;\n    }\n\n    modifier onlyOwner {\n        require(msg.sender == owner);\n        _;\n    }\n    \n    event send_W_kr(uint256[2] W, uint256 request_id, uint256 kr, uint256 timestamp);\n    //event send_W_kr(uint256[2] W,G.G1Point delta, uint256 request_id);\n    event send_updated_witness(G.G1Point delta);\n    event send_self_revocation(uint256 kr, uint256[] W,uint256[] H,uint256[] S, uint256[2][] cm);\n\n    function lagrange_basis(uint[] memory indexes) public view returns(uint256[] memory){\n            uint256 o = G.GEN_ORDER;\n            uint256[] memory l = new uint256[](indexes.length);\n            for(uint a=0; a<indexes.length; a++){\n                uint256 numerator =1;\n                uint256 denominator = 1;\n                for(uint b=0;b<indexes.length; b++){\n                    uint256 i = indexes[a];\n                    uint256 j = indexes[b];\n                    if (j > i){\n                        numerator = mulmod(numerator, j, o);\n                        denominator = mulmod(denominator, (j-i), o);\n                    }\n                    else if(j < i){\n                        numerator = mulmod(o - j,numerator, o);\n                        denominator = mulmod(denominator, (i-j), o);\n                    }\n                }\n                l[a] = mulmod(numerator, G._modInv(denominator, o), o);\n            }\n            return l;\n\n    }\n    function genAggregatedYa() public view returns(G.G1Point memory){\n            uint256 [] memory indexes = new uint[](to);\n            uint256[2][] memory filter = new uint[2][](to);\n            uint u = 0;\n            for (uint i=1; i<=no; i++) \n            {\n                if(accumulator_key_shares[i][0] != 0 && accumulator_key_shares[i][1] != 0){\n                    indexes[u] = i;\n                    filter[u] = accumulator_key_shares[i];\n                    u++;\n                }\n            }\n            uint256[] memory l = lagrange_basis(indexes);\n            G.G1Point memory aggr_ka;\n            aggr_ka.X = filter[0][0];\n            aggr_ka.Y = filter[0][1];\n            aggr_ka = G.g1mul(aggr_ka, l[0]);\n            for (uint i=1; i<indexes.length; i++){\n                G.G1Point memory tmp;\n                tmp.X = filter[i][0];\n                tmp.Y = filter[i][1];\n                aggr_ka = G.g1add(aggr_ka ,(G.g1mul(tmp, l[i])));\n            }\n            return aggr_ka;\n    }\n\n    function genAggregatedYa_2() public view returns(uint256){\n            uint256 [] memory indexes = new uint[](to);\n            uint256[] memory filter = new uint[](to);\n            uint u = 0;\n            for (uint i=1; i<=no; i++) \n            {\n                if(accumulator_key_shares_2[i] != 0){\n                    indexes[u] = i;\n                    filter[u] = accumulator_key_shares_2[i];\n                    u++;\n                }\n            }\n            uint256[] memory l = lagrange_basis(indexes);\n            uint256 aggr_ka = 0;\n            for (uint i=0; i<indexes.length; i++){\n                aggr_ka = addmod(aggr_ka, mulmod(filter[i], l[i], G.GEN_ORDER), G.GEN_ORDER);\n            }\n            return aggr_ka;\n    }\n\n    function updateDelta(uint256 ya, uint256 kr) public {\n            delta = G.g1mul(delta, G._modInv(addmod(kr,ya,G.GEN_ORDER),G.GEN_ORDER));\n    }\n    function get_delta() public view returns(uint256, uint256){\n        return (delta.X, delta.Y);\n    }\n    function recieve_ya_share_revocation(uint id, uint256 share, uint256 request_id) public {\n        accumulator_key_shares_2[id] = share;\n        uint count = 0;\n        for (uint i=1; i<=no; i++)\n        {\n            if(accumulator_key_shares_2[i] != 0) count++;\n        }\n        if(count==to){\n            uint256 Ya = genAggregatedYa_2();\n            updateDelta(Ya, id_kr[request_id]);\n            blacklist.push([id_kr[request_id], block.timestamp]);\n            for (uint i=1; i<=no; i++) \n            {\n               accumulator_key_shares_2[i] = 0;\n            }\n            emit send_updated_witness(delta);\n        }\n        \n    }\n\n    function verify_revocation_request(uint256 kr,  G.G1Point memory witness, G.G1Point memory H, G.G1Point memory S, G.G1Point[] memory commitments) public{\n            uint256[] memory a = new uint256[](2);\n            uint256[] memory b = new uint256[](2);\n            uint256[] memory c = new uint256[](2);\n            uint256[2][] memory cm = new uint256[2][](commitments.length);\n            a[0] = witness.X;\n            a[1] = witness.Y;\n            b[0] = H.X;\n            b[1] = H.Y;\n            c[0] = S.X;\n            c[1] = S.Y;\n            for(uint i =0;i<commitments.length;i++){\n                cm[i][0] = commitments[i].X;\n                cm[i][1] = commitments[i].Y;\n            }\n            \n            emit send_self_revocation(kr,a, b,c, cm);\n    }\n    function hash_to_G1(G.G1Point memory m) private view returns (G.G1Point memory){\n        uint256 cm = m.X;\n        uint256 cm2 = m.Y;\n        bytes32 bcm = bytes32(cm);\n        bytes32 bcm2 = bytes32(cm2);\n        bytes memory c = new bytes(64);\n        for(uint i=0;i<32;i++){\n            c[i] = bcm[i];\n        }\n        for(uint j=32;j<64;j++){\n            c[j] = bcm2[j-32];\n        }\n        uint256 id = uint256(sha256(c));\n        return G.HashToPoint(id);\n    }\n\n    function hash_to_int(G.G1Point memory a) private view returns(uint256){\n        G.G1Point memory b = hash_to_G1(a);\n        uint256 cm = b.X;\n        uint256 cm2 = b.Y;\n        bytes32 bcm = bytes32(cm);\n        bytes32 bcm2 = bytes32(cm2);\n        bytes memory c = new bytes(64);\n        for(uint i=0;i<32;i++){\n            c[i] = bcm[i];\n        }\n        for(uint j=32;j<64;j++){\n            c[j] = bcm2[j-32];\n        }\n        uint256 id = uint256(sha256(c));\n        return id;\n    }\n\n    function recieve_ya_share(uint id, G.G1Point memory share, uint256 request_id) public {\n        if(flag[request_id] == 1) return;\n\n        accumulator_key_shares[id][0] = share.X;\n        accumulator_key_shares[id][1] = share.Y;\n        uint count = 0;\n        for (uint i=1; i<=no; i++) \n        {\n            if(accumulator_key_shares[i][0] != 0 && accumulator_key_shares[i][1] != 0) count++;\n        }\n        if(count==to){\n            uint256[2] memory W = [delta.X,delta.Y];\n            delta = genAggregatedYa();       \n            for (uint i=1; i<=no; i++) \n            {\n               accumulator_key_shares[i] = [0,0];\n            }\n\n            whitelist.push([id_kr[request_id],block.timestamp]);\n            flag[request_id] = 1;\n            emit send_W_kr(W,request_id,id_kr[request_id], block.timestamp);\n            //emit send_W_kr(W_m,delta,request_id);\n        }\n        \n    }\n\n    function updateWitness(uint256 time) public view returns (uint256[] memory, uint256[] memory, uint256 ){\n            uint256[] memory w1 = new uint256[](whitelist.length);\n            uint256[] memory b1 = new uint256[](blacklist.length);\n            uint c = 0;\n            for(uint i = whitelist.length-1; i>=0;i--){\n                if(whitelist[i][1] < time) break;\n                w1[c] = whitelist[i][0];\n                c++;\n            }\n            c = 0;\n            for(uint i = blacklist.length-1; i>=0;i--){\n                if(blacklist[i][1] < time) break;\n                b1[c] = blacklist[i][0];\n                c++;\n            }\n            return (w1,b1, block.timestamp);\n    }\n    function set_accumulator(uint _no,uint _to,uint _nv,uint _tv) public {\n        delta = G.P1();\n        no = _no;\n        nv = _nv;\n        to = _to;\n        tv = _tv;\n        for (uint i=1; i<=no; i++) \n        {\n            accumulator_key_shares[i] = [0,0];\n            accumulator_key_shares_2[i] = 0;\n        }\n    }\n\n    function gen_share(uint256[] memory array, uint x) public view returns(uint256){\n        uint256 ans = 0;\n        uint256 o = G.GEN_ORDER;\n        for(uint i=0; i<array.length; i++){\n            ans = addmod(ans , mulmod(array[i],G.expMod(x,i,o),o),o); \n        }\n        return ans % o;\n    }\n\n    function generate_kr_shares(G.G1Point memory cm) public returns(uint256[] memory, uint256[] memory) {\n        uint256[] memory poly_validators = new uint256[](tv);\n        uint256[] memory poly_openers = new uint256[](to);\n        uint256[] memory validators_share = new uint256[](nv);\n        uint256[] memory openers_share = new uint256[](no);\n        uint256 kr = gen_random();\n        id_kr[hash_to_int(cm)] = kr;\n        \n        poly_validators[0] = kr;\n        poly_openers[0] = kr;\n        for(uint i=1; i<tv; i++){\n            poly_validators[i] = gen_random();\n        }\n        for(uint i=1; i<to; i++){\n            poly_openers[i] = gen_random();\n        }\n\n        for(uint i=1; i<=nv; i++){\n            validators_share[i-1] = gen_share(poly_validators,i);\n        }\n        for(uint i=1; i<=no; i++){\n            openers_share[i-1] = gen_share(poly_openers,i);\n        }\n        return (validators_share, openers_share);\n    }\n\n    function gen_random() private returns(uint256){\n        randNonce++;\n        return uint256(keccak256(abi.encodePacked(block.timestamp,msg.sender,randNonce))) % G.GEN_ORDER;\n    }\n}",
  "sourcePath": "/home/neel/acad/DTRAC/ravc-main/contracts/Accumulator.sol",
  "compiler": {
    "name": "solc",
    "version": "0.8.13+commit.abaa5c0e.Emscripten.clang"
  },
  "schemaVersion": "3.4.13",
  "updatedAt": "2023-06-09T10:07:55.046Z",
  "networkType": "ethereum",
  "devdoc": {
    "kind": "dev",
    "methods": {},
    "version": 1
  },
  "userdoc": {
    "kind": "user",
    "methods": {},
    "version": 1
  }
}