{
  "contractName": "Issue",
  "abi": [
    {
      "inputs": [
        {
          "internalType": "contract Params",
          "name": "_params",
          "type": "address"
        }
      ],
      "stateMutability": "nonpayable",
      "type": "constructor"
    },
    {
      "anonymous": false,
      "inputs": [
        {
          "indexed": true,
          "internalType": "uint256",
          "name": "id",
          "type": "uint256"
        },
        {
          "indexed": true,
          "internalType": "address",
          "name": "receiver",
          "type": "address"
        },
        {
          "indexed": false,
          "internalType": "address",
          "name": "issuer_address",
          "type": "address"
        },
        {
          "indexed": false,
          "internalType": "uint256[2]",
          "name": "h",
          "type": "uint256[2]"
        },
        {
          "indexed": false,
          "internalType": "uint256[2]",
          "name": "t",
          "type": "uint256[2]"
        }
      ],
      "name": "emitIssue",
      "type": "event"
    },
    {
      "anonymous": false,
      "inputs": [
        {
          "indexed": false,
          "internalType": "uint256",
          "name": "id",
          "type": "uint256"
        }
      ],
      "name": "get_ya_shares",
      "type": "event"
    },
    {
      "inputs": [
        {
          "internalType": "address",
          "name": "addr",
          "type": "address"
        }
      ],
      "name": "set_params",
      "outputs": [],
      "stateMutability": "nonpayable",
      "type": "function"
    },
    {
      "inputs": [
        {
          "internalType": "address",
          "name": "issuer_address",
          "type": "address"
        }
      ],
      "name": "addIssuer",
      "outputs": [],
      "stateMutability": "nonpayable",
      "type": "function"
    },
    {
      "inputs": [
        {
          "internalType": "address",
          "name": "issuer_address",
          "type": "address"
        }
      ],
      "name": "removeIssuer",
      "outputs": [],
      "stateMutability": "nonpayable",
      "type": "function"
    },
    {
      "inputs": [
        {
          "internalType": "string",
          "name": "name",
          "type": "string"
        },
        {
          "internalType": "address",
          "name": "receiver",
          "type": "address"
        },
        {
          "internalType": "uint256[2]",
          "name": "h",
          "type": "uint256[2]"
        },
        {
          "internalType": "uint256[2]",
          "name": "t",
          "type": "uint256[2]"
        }
      ],
      "name": "SendBlindSign",
      "outputs": [],
      "stateMutability": "nonpayable",
      "type": "function"
    },
    {
      "inputs": [
        {
          "internalType": "string",
          "name": "name",
          "type": "string"
        }
      ],
      "name": "get_kr_W",
      "outputs": [],
      "stateMutability": "nonpayable",
      "type": "function"
    }
  ],
  "bytecode": "0x608060405234801561001057600080fd5b506040516106d03803806106d083398101604081905261002f91610062565b60018054336001600160a01b031991821617909155600080549091166001600160a01b0392909216919091179055610092565b60006020828403121561007457600080fd5b81516001600160a01b038116811461008b57600080fd5b9392505050565b61062f806100a16000396000f3fe608060405234801561001057600080fd5b50600436106100575760003560e01c806317a2a3601461005c57806320694db0146100715780633c0ef2a01461008457806347bc70931461009757806385b7937a146100aa575b600080fd5b61006f61006a366004610468565b6100bd565b005b61006f61007f3660046104d9565b6101dc565b61006f6100923660046104fb565b610217565b61006f6100a53660046104d9565b6102c8565b61006f6100b83660046104d9565b610300565b3360009081526002602052604090205460ff166100d957600080fd5b6000805460405163144323a760e31b81526001600160a01b039091169063a2191d389061010a908890600401610538565b602060405180830381865afa158015610127573d6000803e3d6000fd5b505050506040513d601f19601f8201168201806040525081019061014b919061058d565b90508060000361018f5760405162461bcd60e51b815260206004820152600b60248201526a27379039bab1b41020a19760a91b604482015260640160405180910390fd5b836001600160a01b0316817f3248b557172e8f9516adcd985a3b501b10b2d0567abb77d1a5daf39e2496f4823386866040516101cd939291906105cf565b60405180910390a35050505050565b6001546001600160a01b031633146101f357600080fd5b6001600160a01b03166000908152600260205260409020805460ff19166001179055565b6000805460405163144323a760e31b81526001600160a01b039091169063a2191d3890610248908590600401610538565b602060405180830381865afa158015610265573d6000803e3d6000fd5b505050506040513d601f19601f82011682018060405250810190610289919061058d565b90507fd91279bff1cb4e91d21a98ab6f855c169c5f65e225b6c23b8da88ccde362a26c816040516102bc91815260200190565b60405180910390a15050565b6001546001600160a01b031633146102df57600080fd5b6001600160a01b03166000908152600260205260409020805460ff19169055565b6001546001600160a01b0316331461031757600080fd5b600080546001600160a01b0319166001600160a01b0392909216919091179055565b634e487b7160e01b600052604160045260246000fd5b600082601f83011261036057600080fd5b813567ffffffffffffffff8082111561037b5761037b610339565b604051601f8301601f19908116603f011681019082821181831017156103a3576103a3610339565b816040528381528660208588010111156103bc57600080fd5b836020870160208301376000602085830101528094505050505092915050565b80356001600160a01b03811681146103f357600080fd5b919050565b600082601f83011261040957600080fd5b6040516040810181811067ffffffffffffffff8211171561042c5761042c610339565b806040525080604084018581111561044357600080fd5b845b8181101561045d578035835260209283019201610445565b509195945050505050565b60008060008060c0858703121561047e57600080fd5b843567ffffffffffffffff81111561049557600080fd5b6104a18782880161034f565b9450506104b0602086016103dc565b92506104bf86604087016103f8565b91506104ce86608087016103f8565b905092959194509250565b6000602082840312156104eb57600080fd5b6104f4826103dc565b9392505050565b60006020828403121561050d57600080fd5b813567ffffffffffffffff81111561052457600080fd5b6105308482850161034f565b949350505050565b600060208083528351808285015260005b8181101561056557858101830151858201604001528201610549565b81811115610577576000604083870101525b50601f01601f1916929092016040019392505050565b60006020828403121561059f57600080fd5b5051919050565b8060005b60028110156105c95781518452602093840193909101906001016105aa565b50505050565b6001600160a01b038416815260a081016105ec60208301856105a6565b61053060608301846105a656fea2646970667358221220e123bca57fbcf5e0959ffb8f2910eecebbf4ea1ee14041280b49fcb2b9ce2b6964736f6c634300080d0033",
  "immutableReferences": {},
  "source": "// SPDX-License-Identifier: GPL-3.0\npragma solidity >=0.7.0 <0.9.0;\npragma experimental ABIEncoderV2;\n\nimport {Params} from \"./Params.sol\";\n\ncontract Issue {\n\n    Params private params;\n    address private owner;\n    constructor(Params _params) {\n        owner = msg.sender;\n        params = _params;\n    }\n    \n    modifier onlyOwner {\n        require(msg.sender == owner);\n        _;\n    }\n\n    function set_params(address addr) public onlyOwner {\n        params = Params(addr);\n    }\n\n    mapping(address => bool) private issuers;\n    function addIssuer(address issuer_address) public onlyOwner {\n        issuers[issuer_address] = true;\n    }\n    function removeIssuer(address issuer_address) public onlyOwner {\n        issuers[issuer_address] = false;\n    }\n    modifier onlyIssuers {\n        require(issuers[msg.sender]);\n        _;\n    }\n\n    event emitIssue(uint256 indexed id, address indexed receiver, address issuer_address, uint256[2] h, uint256[2] t);\n    event get_ya_shares(uint256 id);\n    function SendBlindSign(string memory name, address receiver, uint256[2] memory h, uint256[2] memory t) public onlyIssuers {\n        uint256 id = params.getMapCredentials(name);\n        require(id != 0, \"No such AC.\");\n        emit emitIssue(id, receiver, msg.sender, h, t);\n    }\n    function get_kr_W(string memory name) public {\n        uint256 id = params.getMapCredentials(name);\n        emit get_ya_shares(id);\n    }\n}",
  "sourcePath": "/home/neel/acad/DTRAC/ravc-main/contracts/Issue.sol",
  "compiler": {
    "name": "solc",
    "version": "0.8.13+commit.abaa5c0e.Emscripten.clang"
  },
  "schemaVersion": "3.4.13",
  "updatedAt": "2023-06-09T10:07:55.028Z",
  "networkType": "ethereum",
  "devdoc": {
    "kind": "dev",
    "methods": {},
    "version": 1
  },
  "userdoc": {
    "kind": "user",
    "methods": {},
    "version": 1
  }
}