{
  "contractName": "Params",
  "abi": [
    {
      "inputs": [],
      "stateMutability": "nonpayable",
      "type": "constructor"
    },
    {
      "inputs": [
        {
          "internalType": "string",
          "name": "name",
          "type": "string"
        }
      ],
      "name": "getMapCredentials",
      "outputs": [
        {
          "internalType": "uint256",
          "name": "",
          "type": "uint256"
        }
      ],
      "stateMutability": "view",
      "type": "function",
      "constant": true
    },
    {
      "inputs": [
        {
          "internalType": "string",
          "name": "name",
          "type": "string"
        }
      ],
      "name": "getMapTTPs",
      "outputs": [
        {
          "internalType": "uint256",
          "name": "",
          "type": "uint256"
        }
      ],
      "stateMutability": "view",
      "type": "function",
      "constant": true
    },
    {
      "inputs": [],
      "name": "set_hi",
      "outputs": [
        {
          "internalType": "uint256",
          "name": "",
          "type": "uint256"
        }
      ],
      "stateMutability": "pure",
      "type": "function",
      "constant": true
    },
    {
      "inputs": [
        {
          "internalType": "string",
          "name": "_name",
          "type": "string"
        },
        {
          "components": [
            {
              "internalType": "uint256",
              "name": "X",
              "type": "uint256"
            },
            {
              "internalType": "uint256",
              "name": "Y",
              "type": "uint256"
            }
          ],
          "internalType": "struct G.G1Point[]",
          "name": "_hs",
          "type": "tuple[]"
        },
        {
          "components": [
            {
              "internalType": "uint256[2]",
              "name": "X",
              "type": "uint256[2]"
            },
            {
              "internalType": "uint256[2]",
              "name": "Y",
              "type": "uint256[2]"
            }
          ],
          "internalType": "struct G.G2Point",
          "name": "_alpha",
          "type": "tuple"
        },
        {
          "components": [
            {
              "internalType": "uint256",
              "name": "X",
              "type": "uint256"
            },
            {
              "internalType": "uint256",
              "name": "Y",
              "type": "uint256"
            }
          ],
          "internalType": "struct G.G1Point[]",
          "name": "_g1_beta",
          "type": "tuple[]"
        },
        {
          "components": [
            {
              "internalType": "uint256[2]",
              "name": "X",
              "type": "uint256[2]"
            },
            {
              "internalType": "uint256[2]",
              "name": "Y",
              "type": "uint256[2]"
            }
          ],
          "internalType": "struct G.G2Point[]",
          "name": "_beta",
          "type": "tuple[]"
        },
        {
          "components": [
            {
              "internalType": "uint256[2]",
              "name": "X",
              "type": "uint256[2]"
            },
            {
              "internalType": "uint256[2]",
              "name": "Y",
              "type": "uint256[2]"
            }
          ],
          "internalType": "struct G.G2Point[]",
          "name": "_opk",
          "type": "tuple[]"
        },
        {
          "internalType": "string[][]",
          "name": "_combinations",
          "type": "string[][]"
        },
        {
          "internalType": "string[]",
          "name": "_dependent_ttps",
          "type": "string[]"
        },
        {
          "internalType": "uint256[][]",
          "name": "_include_indexes",
          "type": "uint256[][]"
        },
        {
          "internalType": "uint256[]",
          "name": "_public_m_encoding",
          "type": "uint256[]"
        }
      ],
      "name": "set_params",
      "outputs": [],
      "stateMutability": "nonpayable",
      "type": "function"
    },
    {
      "inputs": [
        {
          "internalType": "string",
          "name": "_name",
          "type": "string"
        },
        {
          "components": [
            {
              "internalType": "uint256",
              "name": "X",
              "type": "uint256"
            },
            {
              "internalType": "uint256",
              "name": "Y",
              "type": "uint256"
            }
          ],
          "internalType": "struct G.G1Point",
          "name": "_ttp_pk",
          "type": "tuple"
        },
        {
          "components": [
            {
              "internalType": "uint256",
              "name": "X",
              "type": "uint256"
            },
            {
              "internalType": "uint256",
              "name": "Y",
              "type": "uint256"
            }
          ],
          "internalType": "struct G.G1Point[]",
          "name": "_hs",
          "type": "tuple[]"
        }
      ],
      "name": "set_ttp_params",
      "outputs": [],
      "stateMutability": "nonpayable",
      "type": "function"
    },
    {
      "inputs": [
        {
          "internalType": "string",
          "name": "_name",
          "type": "string"
        }
      ],
      "name": "get_hs",
      "outputs": [
        {
          "components": [
            {
              "internalType": "uint256",
              "name": "X",
              "type": "uint256"
            },
            {
              "internalType": "uint256",
              "name": "Y",
              "type": "uint256"
            }
          ],
          "internalType": "struct G.G1Point[]",
          "name": "",
          "type": "tuple[]"
        }
      ],
      "stateMutability": "view",
      "type": "function",
      "constant": true
    },
    {
      "inputs": [
        {
          "internalType": "string",
          "name": "_name",
          "type": "string"
        }
      ],
      "name": "get_public_m_encoding",
      "outputs": [
        {
          "internalType": "uint256[]",
          "name": "",
          "type": "uint256[]"
        }
      ],
      "stateMutability": "view",
      "type": "function",
      "constant": true
    },
    {
      "inputs": [
        {
          "internalType": "string",
          "name": "_name",
          "type": "string"
        }
      ],
      "name": "get_alpha",
      "outputs": [
        {
          "components": [
            {
              "internalType": "uint256[2]",
              "name": "X",
              "type": "uint256[2]"
            },
            {
              "internalType": "uint256[2]",
              "name": "Y",
              "type": "uint256[2]"
            }
          ],
          "internalType": "struct G.G2Point",
          "name": "",
          "type": "tuple"
        }
      ],
      "stateMutability": "view",
      "type": "function",
      "constant": true
    },
    {
      "inputs": [
        {
          "internalType": "string",
          "name": "_name",
          "type": "string"
        }
      ],
      "name": "get_beta",
      "outputs": [
        {
          "components": [
            {
              "internalType": "uint256[2]",
              "name": "X",
              "type": "uint256[2]"
            },
            {
              "internalType": "uint256[2]",
              "name": "Y",
              "type": "uint256[2]"
            }
          ],
          "internalType": "struct G.G2Point[]",
          "name": "",
          "type": "tuple[]"
        }
      ],
      "stateMutability": "view",
      "type": "function",
      "constant": true
    },
    {
      "inputs": [
        {
          "internalType": "string",
          "name": "_name",
          "type": "string"
        }
      ],
      "name": "get_g1_beta",
      "outputs": [
        {
          "components": [
            {
              "internalType": "uint256",
              "name": "X",
              "type": "uint256"
            },
            {
              "internalType": "uint256",
              "name": "Y",
              "type": "uint256"
            }
          ],
          "internalType": "struct G.G1Point[]",
          "name": "",
          "type": "tuple[]"
        }
      ],
      "stateMutability": "view",
      "type": "function",
      "constant": true
    },
    {
      "inputs": [
        {
          "internalType": "string",
          "name": "_name",
          "type": "string"
        }
      ],
      "name": "get_opk",
      "outputs": [
        {
          "components": [
            {
              "internalType": "uint256[2]",
              "name": "X",
              "type": "uint256[2]"
            },
            {
              "internalType": "uint256[2]",
              "name": "Y",
              "type": "uint256[2]"
            }
          ],
          "internalType": "struct G.G2Point[]",
          "name": "",
          "type": "tuple[]"
        }
      ],
      "stateMutability": "view",
      "type": "function",
      "constant": true
    },
    {
      "inputs": [
        {
          "internalType": "uint256",
          "name": "id",
          "type": "uint256"
        },
        {
          "internalType": "string[]",
          "name": "combination",
          "type": "string[]"
        }
      ],
      "name": "checkCombination",
      "outputs": [
        {
          "internalType": "bool",
          "name": "",
          "type": "bool"
        }
      ],
      "stateMutability": "view",
      "type": "function",
      "constant": true
    },
    {
      "inputs": [
        {
          "internalType": "string",
          "name": "_name",
          "type": "string"
        },
        {
          "internalType": "string[]",
          "name": "combination",
          "type": "string[]"
        }
      ],
      "name": "get_include_indexes",
      "outputs": [
        {
          "internalType": "uint256[][]",
          "name": "",
          "type": "uint256[][]"
        }
      ],
      "stateMutability": "view",
      "type": "function",
      "constant": true
    },
    {
      "inputs": [
        {
          "internalType": "string",
          "name": "_name",
          "type": "string"
        }
      ],
      "name": "get_ttp_combinations",
      "outputs": [
        {
          "internalType": "string[][]",
          "name": "",
          "type": "string[][]"
        }
      ],
      "stateMutability": "view",
      "type": "function",
      "constant": true
    },
    {
      "inputs": [
        {
          "internalType": "string",
          "name": "_name",
          "type": "string"
        }
      ],
      "name": "get_ttpKeys",
      "outputs": [
        {
          "components": [
            {
              "internalType": "uint256",
              "name": "X",
              "type": "uint256"
            },
            {
              "internalType": "uint256",
              "name": "Y",
              "type": "uint256"
            }
          ],
          "internalType": "struct G.G1Point",
          "name": "",
          "type": "tuple"
        }
      ],
      "stateMutability": "view",
      "type": "function",
      "constant": true
    },
    {
      "inputs": [
        {
          "internalType": "string",
          "name": "_name",
          "type": "string"
        }
      ],
      "name": "get_ttp_params",
      "outputs": [
        {
          "components": [
            {
              "internalType": "uint256",
              "name": "X",
              "type": "uint256"
            },
            {
              "internalType": "uint256",
              "name": "Y",
              "type": "uint256"
            }
          ],
          "internalType": "struct G.G1Point[]",
          "name": "",
          "type": "tuple[]"
        }
      ],
      "stateMutability": "view",
      "type": "function",
      "constant": true
    }
  ],
  "bytecode": "0x608060405260006001556000600b5534801561001a57600080fd5b50600080546001600160a01b031916331790556120ba8061003c6000396000f3fe608060405234801561001057600080fd5b50600436106101005760003560e01c80638b4345d111610097578063a794c77f11610066578063a794c77f14610232578063d30f2bc314610252578063fcd3c13114610272578063fe79cc8c1461029257600080fd5b80638b4345d1146101d957806394dee9cc146101ec578063a2191d381461020c578063a260743a1461021f57600080fd5b80635e572474116100d35780635e572474146101715780636cba32c814610186578063730163bf146101a65780637e1b39bf146101b957600080fd5b806317947cc014610105578063437fe4df1461011b5780634b95cd311461012e5780635894e36714610151575b600080fd5b60045b6040519081526020015b60405180910390f35b610108610129366004611682565b6102a5565b61014161013c366004611770565b6102cd565b6040519015158152602001610112565b61016461015f366004611682565b6104d0565b60405161011291906117e6565b61018461017f366004611bab565b610630565b005b610199610194366004611682565b610a1f565b6040516101129190611d6a565b6101996101b4366004611682565b610b0b565b6101cc6101c7366004611682565b610bf7565b6040516101129190611dac565b6101846101e7366004611dc3565b610c83565b6101ff6101fa366004611682565b610d9b565b6040516101129190611e37565b61010861021a366004611682565b610e39565b6101ff61022d366004611682565b610e4b565b610245610240366004611682565b610ee6565b6040516101129190611ec9565b610265610260366004611682565b610f76565b6040516101129190611ee3565b610285610280366004611ef1565b61102f565b6040516101129190611f4a565b6101ff6102a0366004611682565b61128c565b6000600c826040516102b79190611fac565b9081526020016040518091039020549050919050565b6000828152600a6020908152604080832080548251818502810185019093528083528493849084015b828210156103e957838290600052602060002001805480602002602001604051908101604052809291908181526020016000905b828210156103d657838290600052602060002001805461034990611fc8565b80601f016020809104026020016040519081016040528092919081815260200182805461037590611fc8565b80156103c25780601f10610397576101008083540402835291602001916103c2565b820191906000526020600020905b8154815290600101906020018083116103a557829003601f168201915b50505050508152602001906001019061032a565b50505050815260200190600101906102f6565b50505050905060005b81518110156104c357835182828151811061040f5761040f612002565b602002602001015151036104b15760005b845181101561049b5784818151811061043b5761043b612002565b60200260200101518051906020012083838151811061045c5761045c612002565b6020026020010151828151811061047557610475612002565b6020026020010151805190602001200361049b57806104938161202e565b915050610420565b845181036104af57600193505050506104ca565b505b806104bb8161202e565b9150506103f2565b5060009150505b92915050565b606060006104dd83610e39565b9050806000036105085760405162461bcd60e51b81526004016104ff90612047565b60405180910390fd5b6000818152600a6020908152604080832080548251818502810185019093528083529193909284015b8282101561062457838290600052602060002001805480602002602001604051908101604052809291908181526020016000905b8282101561061157838290600052602060002001805461058490611fc8565b80601f01602080910402602001604051908101604052809291908181526020018280546105b090611fc8565b80156105fd5780601f106105d2576101008083540402835291602001916105fd565b820191906000526020600020905b8154815290600101906020018083116105e057829003601f168201915b505050505081526020019060010190610565565b5050505081526020019060010190610531565b50505050915050919050565b6000546001600160a01b0316331461064757600080fd5b6106508a610e39565b1561069d5760405162461bcd60e51b815260206004820152601760248201527f4143206e616d6520616c7265616479206578697374732e00000000000000000060448201526064016104ff565b6106a68a611345565b60006106b18b610e39565b905060005b8a518110156107225760008281526006602052604090208b518c90839081106106e1576106e1612002565b60209081029190910181015182546001818101855560009485529383902082516002909202019081559101519101558061071a8161202e565b9150506106b6565b5060008181526007602090815260409091208351610742928501906113af565b50600081815260036020526040902089518a919061076390829060026113fa565b50602082015161077990600280840191906113fa565b5090505060005b875181101561080a57600082815260056020526040902088518990839081106107ab576107ab612002565b60209081029190910181015182546001810184556000938452919092208251600490920201906107de90829060026113fa565b5060208201516107f490600280840191906113fa565b50505080806108029061202e565b915050610780565b5060005b885181101561087a57600082815260046020526040902089518a908390811061083957610839612002565b6020908102919091018101518254600181810185556000948552938390208251600290920201908155910151910155806108728161202e565b91505061080e565b5060005b865181101561090857600082815260086020526040902087518890839081106108a9576108a9612002565b60209081029190910181015182546001810184556000938452919092208251600490920201906108dc90829060026113fa565b5060208201516108f290600280840191906113fa565b50505080806109009061202e565b91505061087e565b5060005b835181101561099d5783818151811061092757610927612002565b60200260200101516009600084815260200190815260200160002086838151811061095457610954612002565b60200260200101516040516109699190611fac565b9081526020016040518091039020908051906020019061098a9291906113af565b50806109958161202e565b91505061090c565b5060005b8551811015610a11576000828152600a6020526040902086518790839081106109cc576109cc612002565b602090810291909101810151825460018101845560009384529282902081516109fe9491909101929190910190611427565b5080610a098161202e565b9150506109a1565b505050505050505050505050565b60606000610a2c83610e39565b905080600003610a4e5760405162461bcd60e51b81526004016104ff90612047565b600081815260086020908152604080832080548251818502810185019093528083529193909284015b82821015610624576000848152602090206040805160808101825291600485020190829081018260028282826020028201915b815481526020019060010190808311610aaa57505050918352505060408051808201918290526020909201919060028481019182845b815481526020019060010190808311610ae05750505050508152505081526020019060010190610a77565b60606000610b1883610e39565b905080600003610b3a5760405162461bcd60e51b81526004016104ff90612047565b600081815260056020908152604080832080548251818502810185019093528083529193909284015b82821015610624576000848152602090206040805160808101825291600485020190829081018260028282826020028201915b815481526020019060010190808311610b9657505050918352505060408051808201918290526020909201919060028481019182845b815481526020019060010190808311610bcc5750505050508152505081526020019060010190610b63565b60408051808201909152600080825260208201526000610c16836102a5565b905080600003610c575760405162461bcd60e51b815260206004820152600c60248201526b27379039bab1b4102a2a281760a11b60448201526064016104ff565b6000908152600e6020908152604091829020825180840190935280548352600101549082015292915050565b6000546001600160a01b03163314610c9a57600080fd5b610ca3836102a5565b15610cf05760405162461bcd60e51b815260206004820152601860248201527f545450206e616d6520616c7265616479206578697374732e000000000000000060448201526064016104ff565b610cf983611383565b6000610d04846102a5565b905060005b8251811015610d75576000828152600d602052604090208351849083908110610d3457610d34612002565b602090810291909101810151825460018181018555600094855293839020825160029092020190815591015191015580610d6d8161202e565b915050610d09565b506000908152600e60209081526040909120835181559201516001909201919091555050565b60606000610da883610e39565b905080600003610dca5760405162461bcd60e51b81526004016104ff90612047565b600081815260066020908152604080832080548251818502810185019093528083529193909284015b8282101561062457838290600052602060002090600202016040518060400160405290816000820154815260200160018201548152505081526020019060010190610df3565b60006002826040516102b79190611fac565b60606000610e5883610e39565b905080600003610e7a5760405162461bcd60e51b81526004016104ff90612047565b60008181526004602090815260408083208054825181850281018501909352808352919390928401821561062457838290600052602060002090600202016040518060400160405290816000820154815260200160018201548152505081526020019060010190610df3565b60606000610ef383610e39565b905080600003610f155760405162461bcd60e51b81526004016104ff90612047565b60008181526007602090815260409182902080548351818402810184019094528084529091830182828015610f6957602002820191906000526020600020905b815481526020019060010190808311610f55575b5050505050915050919050565b610f7e611480565b6000610f8983610e39565b905080600003610fab5760405162461bcd60e51b81526004016104ff90612047565b60008181526003602052604090819020815160808101835291829081018260028282826020028201915b815481526020019060010190808311610fd557505050918352505060408051808201918290526020909201919060028481019182845b81548152602001906001019080831161100b57505050505081525050915050919050565b6060600061103c84610e39565b90508060000361105e5760405162461bcd60e51b81526004016104ff90612047565b61106881846102cd565b6110c05760405162461bcd60e51b815260206004820152602360248201527f53756368206120636f6d62696e6174696f6e206973206e6f7420706f7373696260448201526236329760e91b60648201526084016104ff565b600083516001600160401b038111156110db576110db6115a5565b60405190808252806020026020018201604052801561110e57816020015b60608152602001906001900390816110f95790505b50905060005b8451811015611283576000838152600960205260409020855186908390811061113f5761113f612002565b60200260200101516040516111549190611fac565b908152604051908190036020019020546001600160401b0381111561117b5761117b6115a5565b6040519080825280602002602001820160405280156111a4578160200160208202803683370190505b508282815181106111b7576111b7612002565b6020026020010181905250600960008481526020019081526020016000208582815181106111e7576111e7612002565b60200260200101516040516111fc9190611fac565b908152604080519182900360209081018320805480830285018301909352828452919083018282801561124e57602002820191906000526020600020905b81548152602001906001019080831161123a575b505050505082828151811061126557611265612002565b6020026020010181905250808061127b9061202e565b915050611114565b50949350505050565b60606000611299836102a5565b9050806000036112d95760405162461bcd60e51b815260206004820152600b60248201526a04e6f2073756368205454560ac1b60448201526064016104ff565b6000818152600d602090815260408083208054825181850281018501909352808352919390928401821561062457838290600052602060002090600202016040518060400160405290816000820154815260200160018201548152505081526020019060010190610df3565b6001806000828254611357919061206c565b9091555050600154604051600290611370908490611fac565b9081526040519081900360200190205550565b6001600b6000828254611396919061206c565b9091555050600b54604051600c90611370908490611fac565b8280548282559060005260206000209081019282156113ea579160200282015b828111156113ea5782518255916020019190600101906113cf565b506113f69291506114a5565b5090565b82600281019282156113ea57916020028201828111156113ea5782518255916020019190600101906113cf565b828054828255906000526020600020908101928215611474579160200282015b8281111561147457825180516114649184916020909101906114ba565b5091602001919060010190611447565b506113f692915061152d565b604051806040016040528061149361154a565b81526020016114a061154a565b905290565b5b808211156113f657600081556001016114a6565b8280546114c690611fc8565b90600052602060002090601f0160209004810192826114e857600085556113ea565b82601f1061150157805160ff19168380011785556113ea565b828001600101855582156113ea57918201828111156113ea5782518255916020019190600101906113cf565b808211156113f65760006115418282611568565b5060010161152d565b60405180604001604052806002906020820280368337509192915050565b50805461157490611fc8565b6000825580601f10611584575050565b601f0160209004906000526020600020908101906115a291906114a5565b50565b634e487b7160e01b600052604160045260246000fd5b604080519081016001600160401b03811182821017156115dd576115dd6115a5565b60405290565b604051601f8201601f191681016001600160401b038111828210171561160b5761160b6115a5565b604052919050565b600082601f83011261162457600080fd5b81356001600160401b0381111561163d5761163d6115a5565b611650601f8201601f19166020016115e3565b81815284602083860101111561166557600080fd5b816020850160208301376000918101602001919091529392505050565b60006020828403121561169457600080fd5b81356001600160401b038111156116aa57600080fd5b6116b684828501611613565b949350505050565b60006001600160401b038211156116d7576116d76115a5565b5060051b60200190565b600082601f8301126116f257600080fd5b81356020611707611702836116be565b6115e3565b82815260059290921b8401810191818101908684111561172657600080fd5b8286015b848110156117655780356001600160401b038111156117495760008081fd5b6117578986838b0101611613565b84525091830191830161172a565b509695505050505050565b6000806040838503121561178357600080fd5b8235915060208301356001600160401b038111156117a057600080fd5b6117ac858286016116e1565b9150509250929050565b60005b838110156117d15781810151838201526020016117b9565b838111156117e0576000848401525b50505050565b60208152600060208201835180825260408401915060408160051b8501016020860160005b8381101561189f57868303603f19018552815180518085526020918201918086019190600582901b87010160005b8281101561188557601f1980898403018552855180518085526118638160208701602085016117b6565b60209788019796870196601f9190910190921693909301019150600101611839565b50602098890198909650949094019350505060010161180b565b50909695505050505050565b6000604082840312156118bd57600080fd5b6118c56115bb565b9050813581526020820135602082015292915050565b600082601f8301126118ec57600080fd5b813560206118fc611702836116be565b82815260069290921b8401810191818101908684111561191b57600080fd5b8286015b848110156117655761193188826118ab565b83529183019160400161191f565b600082601f83011261195057600080fd5b604051604081018181106001600160401b0382111715611972576119726115a5565b806040525080604084018581111561198957600080fd5b845b818110156119a357803583526020928301920161198b565b509195945050505050565b6000608082840312156119c057600080fd5b6119c86115bb565b90506119d4838361193f565b81526119e3836040840161193f565b602082015292915050565b600082601f8301126119ff57600080fd5b81356020611a0f611702836116be565b82815260079290921b84018101918181019086841115611a2e57600080fd5b8286015b8481101561176557611a4488826119ae565b835291830191608001611a32565b600082601f830112611a6357600080fd5b81356020611a73611702836116be565b82815260059290921b84018101918181019086841115611a9257600080fd5b8286015b848110156117655780356001600160401b03811115611ab55760008081fd5b611ac38986838b01016116e1565b845250918301918301611a96565b600082601f830112611ae257600080fd5b81356020611af2611702836116be565b82815260059290921b84018101918181019086841115611b1157600080fd5b8286015b848110156117655780358352918301918301611b15565b600082601f830112611b3d57600080fd5b81356020611b4d611702836116be565b82815260059290921b84018101918181019086841115611b6c57600080fd5b8286015b848110156117655780356001600160401b03811115611b8f5760008081fd5b611b9d8986838b0101611ad1565b845250918301918301611b70565b6000806000806000806000806000806101a08b8d031215611bcb57600080fd5b8a356001600160401b0380821115611be257600080fd5b611bee8e838f01611613565b9b5060208d0135915080821115611c0457600080fd5b611c108e838f016118db565b9a50611c1f8e60408f016119ae565b995060c08d0135915080821115611c3557600080fd5b611c418e838f016118db565b985060e08d0135915080821115611c5757600080fd5b611c638e838f016119ee565b97506101008d0135915080821115611c7a57600080fd5b611c868e838f016119ee565b96506101208d0135915080821115611c9d57600080fd5b611ca98e838f01611a52565b95506101408d0135915080821115611cc057600080fd5b611ccc8e838f016116e1565b94506101608d0135915080821115611ce357600080fd5b611cef8e838f01611b2c565b93506101808d0135915080821115611d0657600080fd5b50611d138d828e01611ad1565b9150509295989b9194979a5092959850565b8060005b60028110156117e0578151845260209384019390910190600101611d29565b611d53828251611d25565b6020810151611d656040840182611d25565b505050565b6020808252825182820181905260009190848201906040850190845b8181101561189f57611d99838551611d48565b9284019260809290920191600101611d86565b8151815260208083015190820152604081016104ca565b600080600060808486031215611dd857600080fd5b83356001600160401b0380821115611def57600080fd5b611dfb87838801611613565b9450611e0a87602088016118ab565b93506060860135915080821115611e2057600080fd5b50611e2d868287016118db565b9150509250925092565b602080825282518282018190526000919060409081850190868401855b82811015611e8157611e7184835180518252602090810151910152565b9284019290850190600101611e54565b5091979650505050505050565b600081518084526020808501945080840160005b83811015611ebe57815187529582019590820190600101611ea2565b509495945050505050565b602081526000611edc6020830184611e8e565b9392505050565b608081016104ca8284611d48565b60008060408385031215611f0457600080fd5b82356001600160401b0380821115611f1b57600080fd5b611f2786838701611613565b93506020850135915080821115611f3d57600080fd5b506117ac858286016116e1565b6000602080830181845280855180835260408601915060408160051b870101925083870160005b82811015611f9f57603f19888603018452611f8d858351611e8e565b94509285019290850190600101611f71565b5092979650505050505050565b60008251611fbe8184602087016117b6565b9190910192915050565b600181811c90821680611fdc57607f821691505b602082108103611ffc57634e487b7160e01b600052602260045260246000fd5b50919050565b634e487b7160e01b600052603260045260246000fd5b634e487b7160e01b600052601160045260246000fd5b60006001820161204057612040612018565b5060010190565b6020808252600b908201526a27379039bab1b41020a19760a91b604082015260600190565b6000821982111561207f5761207f612018565b50019056fea2646970667358221220b4121b9f434a5fe09617e2b7f1719df419ea0cb05c843407135feabe04c514c764736f6c634300080d0033",
  "immutableReferences": {},
  "source": "// SPDX-License-Identifier: GPL-3.0\npragma solidity >=0.7.0 <0.9.0;\npragma experimental ABIEncoderV2;\n\nimport {G} from \"../libraries/G.sol\";\n\ncontract Params {\n    \n    address private owner;  \n    constructor() {    \n        owner = msg.sender;\n    }\n\n    uint256 private credentialCount = 0;\n\n    mapping(string => uint256) private mapCredentials;\n    function setMapCredentials(string memory name) private {\n        credentialCount += 1;\n        mapCredentials[name] = credentialCount;  \n    }\n\n    function getMapCredentials(string memory name) public view returns (uint256) {\n        return mapCredentials[name];\n    }\n\n    mapping(uint256 => G.G2Point) private alpha;\n    mapping(uint256 => G.G1Point[]) private g1_beta;\n    mapping(uint256 => G.G2Point[]) private beta;\n    mapping(uint256 => G.G1Point[]) private hs;\n    mapping(uint256 => uint256[]) private public_m_encoding;\n    mapping(uint256 => G.G2Point[]) private opk;\n    mapping(uint256 =>  mapping(string => uint256[])) private include_indexes;\n    mapping(uint256 => string[][]) private ttp_combinations;\n\n    uint256 private TTPCount = 0;\n    mapping(string => uint256) private mapTTPs;\n    function setMapTTPs(string memory name) private {\n        TTPCount += 1;\n        mapTTPs[name] = TTPCount;  \n    }\n\n    function getMapTTPs(string memory name) public view returns (uint256) {\n        return mapTTPs[name];\n    }\n\n    mapping(uint256 => G.G1Point[]) private ttp_hs;\n    mapping(uint256 => G.G1Point) private ttp_pk;\n\n    modifier onlyOwner {\n        require(msg.sender == owner);\n        _;\n    }\n    function set_hi() public pure returns(uint){\n            return 4;\n    }\n    function set_params(string memory _name, G.G1Point[] memory _hs, G.G2Point memory _alpha, G.G1Point[] memory _g1_beta, G.G2Point[] memory _beta, G.G2Point[] memory _opk, string[][] memory _combinations, string[] memory _dependent_ttps, uint256[][] memory _include_indexes, uint256[] memory _public_m_encoding) public onlyOwner {\n        require (getMapCredentials(_name) == 0, \"AC name already exists.\");\n        setMapCredentials(_name);\n        uint256 id = getMapCredentials(_name);\n        for(uint256 i=0; i < _hs.length; i++) {\n            hs[id].push(_hs[i]);\n        }\n        public_m_encoding[id] = _public_m_encoding;\n        alpha[id] = _alpha;\n        for(uint256 i=0; i < _beta.length; i++) {\n            beta[id].push(_beta[i]);\n        }\n        for(uint256 i=0; i < _g1_beta.length; i++) {\n            g1_beta[id].push(_g1_beta[i]);\n        }\n        for(uint256 i=0; i < _opk.length; i++) {\n            opk[id].push(_opk[i]);\n        }\n        for(uint256 i=0; i < _include_indexes.length; i++) {\n            include_indexes[id][_dependent_ttps[i]] = _include_indexes[i];\n        }\n        for(uint256 i=0; i < _combinations.length; i++) {\n            ttp_combinations[id].push(_combinations[i]);\n        }\n        \n    }\n\n    function set_ttp_params(string memory _name, G.G1Point memory _ttp_pk, G.G1Point[] memory _hs) public onlyOwner {\n        require (getMapTTPs(_name) == 0, \"TTP name already exists.\");\n        setMapTTPs(_name);\n        uint256 id = getMapTTPs(_name);\n        for(uint256 i=0; i < _hs.length; i++) {\n            ttp_hs[id].push(_hs[i]);\n        }\n        ttp_pk[id] = _ttp_pk;\n    }\n        \n    function get_hs(string memory _name) public view returns (G.G1Point[] memory) {\n        uint256 id = getMapCredentials(_name);\n        require(id != 0, \"No such AC.\");\n        return hs[id];\n    }\n\n    function get_public_m_encoding(string memory _name) public view returns (uint256[] memory) {\n        uint256 id = getMapCredentials(_name);\n        require(id != 0, \"No such AC.\");\n        return public_m_encoding[id];\n    }\n\n    function get_alpha(string memory _name) public view returns (G.G2Point memory) {\n        uint256 id = getMapCredentials(_name);\n        require(id != 0, \"No such AC.\");\n        return alpha[id];\n    }\n    \n    function get_beta(string memory _name) public view returns (G.G2Point[] memory) {\n        uint256 id = getMapCredentials(_name);\n        require(id != 0, \"No such AC.\");\n        return beta[id];\n    }\n\n    function get_g1_beta(string memory _name) public view returns (G.G1Point[] memory) {\n        uint256 id = getMapCredentials(_name);\n        require(id != 0, \"No such AC.\");\n        return g1_beta[id];\n    }\n    \n    function get_opk(string memory _name) public view returns (G.G2Point[] memory) {\n        uint256 id = getMapCredentials(_name);\n        require(id != 0, \"No such AC.\");\n        return opk[id];\n    }\n\n    function checkCombination(uint256 id, string[] memory combination) public view returns(bool) {\n        string[][] memory all_combinations = ttp_combinations[id];\n        for(uint256 i = 0; i < all_combinations.length; i++ ) {\n            if(all_combinations[i].length == combination.length) {\n                uint256 j = 0;\n                for(j = 0; j < combination.length; j++ ) {\n                    if (keccak256(bytes(all_combinations[i][j])) != keccak256(bytes(combination[j]))) {\n                        break;\n                    }\n                }\n                if ( j == combination.length) {\n                    return true;\n                }\n            }\n        }\n        return false;\n    }\n\n    function get_include_indexes(string memory _name, string[] memory combination) public view returns(uint256[][] memory) {\n        uint256 id = getMapCredentials(_name);\n        require(id != 0, \"No such AC.\");\n        require(checkCombination(id, combination), \"Such a combination is not possible.\");\n        uint256[][] memory _include_indexes = new uint256[][](combination.length);\n        for(uint256 i = 0; i < combination.length; i++ ) {\n            _include_indexes[i] = new uint256[](include_indexes[id][combination[i]].length); \n            _include_indexes[i] = include_indexes[id][combination[i]];\n        }\n        return _include_indexes;\n    }\n\n    function get_ttp_combinations(string memory _name) public view returns(string[][] memory) {\n        uint256 id = getMapCredentials(_name);\n        require(id != 0, \"No such AC.\");\n        return ttp_combinations[id];\n    }\n\n    function get_ttpKeys(string memory _name) public view returns(G.G1Point memory) {\n        uint256 id = getMapTTPs(_name);\n        require(id != 0, \"No such TTP.\");\n        return ttp_pk[id];\n    }\n\n    function get_ttp_params(string memory _name) public view returns(G.G1Point[] memory) {\n        uint256 id = getMapTTPs(_name);\n        require(id != 0, \"No such TTP\");\n        return ttp_hs[id];\n    }\n\n}",
  "sourcePath": "/home/neel/acad/DTRAC/ravc-main/contracts/Params.sol",
  "compiler": {
    "name": "solc",
    "version": "0.8.13+commit.abaa5c0e.Emscripten.clang"
  },
  "schemaVersion": "3.4.13",
  "updatedAt": "2023-06-09T10:07:54.985Z",
  "networkType": "ethereum",
  "devdoc": {
    "kind": "dev",
    "methods": {},
    "version": 1
  },
  "userdoc": {
    "kind": "user",
    "methods": {},
    "version": 1
  }
}