{
  "contractName": "Request",
  "abi": [
    {
      "inputs": [
        {
          "internalType": "contract Params",
          "name": "_params",
          "type": "address"
        },
        {
          "internalType": "contract Accumulator",
          "name": "_acc",
          "type": "address"
        }
      ],
      "stateMutability": "nonpayable",
      "type": "constructor"
    },
    {
      "anonymous": false,
      "inputs": [
        {
          "indexed": true,
          "internalType": "uint256",
          "name": "id",
          "type": "uint256"
        },
        {
          "indexed": false,
          "internalType": "address",
          "name": "sender",
          "type": "address"
        },
        {
          "indexed": false,
          "internalType": "uint256[4][]",
          "name": "vcerts",
          "type": "uint256[4][]"
        },
        {
          "indexed": false,
          "internalType": "uint256[2]",
          "name": "cm",
          "type": "uint256[2]"
        },
        {
          "indexed": false,
          "internalType": "uint256[2][]",
          "name": "commitments",
          "type": "uint256[2][]"
        },
        {
          "indexed": false,
          "internalType": "uint256[8][]",
          "name": "ciphershares",
          "type": "uint256[8][]"
        },
        {
          "indexed": false,
          "internalType": "string[]",
          "name": "public_m",
          "type": "string[]"
        },
        {
          "indexed": false,
          "internalType": "string[]",
          "name": "combination",
          "type": "string[]"
        },
        {
          "indexed": false,
          "internalType": "uint256[]",
          "name": "validator_shares",
          "type": "uint256[]"
        },
        {
          "indexed": false,
          "internalType": "uint256[]",
          "name": "opener_shares",
          "type": "uint256[]"
        }
      ],
      "name": "emitRequest",
      "type": "event"
    },
    {
      "inputs": [
        {
          "internalType": "address",
          "name": "addr",
          "type": "address"
        }
      ],
      "name": "set_params",
      "outputs": [],
      "stateMutability": "nonpayable",
      "type": "function"
    },
    {
      "inputs": [
        {
          "internalType": "string",
          "name": "name",
          "type": "string"
        },
        {
          "components": [
            {
              "components": [
                {
                  "internalType": "uint256",
                  "name": "X",
                  "type": "uint256"
                },
                {
                  "internalType": "uint256",
                  "name": "Y",
                  "type": "uint256"
                }
              ],
              "internalType": "struct G.G1Point",
              "name": "commit",
              "type": "tuple"
            },
            {
              "internalType": "uint256[2]",
              "name": "signature",
              "type": "uint256[2]"
            }
          ],
          "internalType": "struct Request.Vcert[]",
          "name": "vcerts",
          "type": "tuple[]"
        },
        {
          "components": [
            {
              "internalType": "uint256",
              "name": "X",
              "type": "uint256"
            },
            {
              "internalType": "uint256",
              "name": "Y",
              "type": "uint256"
            }
          ],
          "internalType": "struct G.G1Point",
          "name": "cm",
          "type": "tuple"
        },
        {
          "components": [
            {
              "components": [
                {
                  "internalType": "uint256",
                  "name": "X",
                  "type": "uint256"
                },
                {
                  "internalType": "uint256",
                  "name": "Y",
                  "type": "uint256"
                }
              ],
              "internalType": "struct G.G1Point[]",
              "name": "commitments",
              "type": "tuple[]"
            },
            {
              "components": [
                {
                  "components": [
                    {
                      "internalType": "uint256[2]",
                      "name": "X",
                      "type": "uint256[2]"
                    },
                    {
                      "internalType": "uint256[2]",
                      "name": "Y",
                      "type": "uint256[2]"
                    }
                  ],
                  "internalType": "struct G.G2Point[2]",
                  "name": "X",
                  "type": "tuple[2]"
                }
              ],
              "internalType": "struct Request.Ciphershare[]",
              "name": "ciphershares",
              "type": "tuple[]"
            }
          ],
          "internalType": "struct Request.Compresser",
          "name": "compressed_params",
          "type": "tuple"
        },
        {
          "components": [
            {
              "internalType": "uint256",
              "name": "X",
              "type": "uint256"
            },
            {
              "internalType": "uint256",
              "name": "Y",
              "type": "uint256"
            }
          ],
          "internalType": "struct G.G1Point[][]",
          "name": "hidden_p",
          "type": "tuple[][]"
        },
        {
          "components": [
            {
              "internalType": "uint256",
              "name": "X",
              "type": "uint256"
            },
            {
              "internalType": "uint256",
              "name": "Y",
              "type": "uint256"
            }
          ],
          "internalType": "struct G.G1Point[]",
          "name": "hr",
          "type": "tuple[]"
        },
        {
          "components": [
            {
              "internalType": "uint256[2]",
              "name": "X",
              "type": "uint256[2]"
            },
            {
              "internalType": "uint256[2]",
              "name": "Y",
              "type": "uint256[2]"
            }
          ],
          "internalType": "struct G.G2Point[]",
          "name": "bo",
          "type": "tuple[]"
        },
        {
          "components": [
            {
              "internalType": "uint256",
              "name": "c",
              "type": "uint256"
            },
            {
              "internalType": "uint256",
              "name": "rr",
              "type": "uint256"
            },
            {
              "internalType": "uint256[]",
              "name": "ros",
              "type": "uint256[]"
            },
            {
              "internalType": "uint256[][]",
              "name": "total_rm",
              "type": "uint256[][]"
            },
            {
              "internalType": "string[]",
              "name": "combination",
              "type": "string[]"
            }
          ],
          "internalType": "struct Request.IssueProof",
          "name": "iproof",
          "type": "tuple"
        },
        {
          "components": [
            {
              "internalType": "uint256[]",
              "name": "c",
              "type": "uint256[]"
            },
            {
              "internalType": "uint256[]",
              "name": "rr",
              "type": "uint256[]"
            },
            {
              "internalType": "uint256[][]",
              "name": "rs",
              "type": "uint256[][]"
            }
          ],
          "internalType": "struct Request.OpenProof",
          "name": "oproof",
          "type": "tuple"
        },
        {
          "components": [
            {
              "components": [
                {
                  "internalType": "uint256[2]",
                  "name": "X",
                  "type": "uint256[2]"
                },
                {
                  "internalType": "uint256[2]",
                  "name": "Y",
                  "type": "uint256[2]"
                }
              ],
              "internalType": "struct G.G2Point[]",
              "name": "Dw",
              "type": "tuple[]"
            },
            {
              "components": [
                {
                  "internalType": "uint256[2]",
                  "name": "X",
                  "type": "uint256[2]"
                },
                {
                  "internalType": "uint256[2]",
                  "name": "Y",
                  "type": "uint256[2]"
                }
              ],
              "internalType": "struct G.G2Point[]",
              "name": "Ew",
              "type": "tuple[]"
            }
          ],
          "internalType": "struct Request.G2PointCompresser",
          "name": "compressedG2points",
          "type": "tuple"
        },
        {
          "internalType": "string[]",
          "name": "public_m",
          "type": "string[]"
        }
      ],
      "name": "RequestCred",
      "outputs": [],
      "stateMutability": "nonpayable",
      "type": "function"
    }
  ],
  "bytecode": "0x60806040523480156200001157600080fd5b5060405162004f5d38038062004f5d83398101604081905262000034916200008a565b600180546001600160a01b03199081163317909155600080546001600160a01b0394851690831617905560028054929093169116179055620000c9565b6001600160a01b03811681146200008757600080fd5b50565b600080604083850312156200009e57600080fd5b8251620000ab8162000071565b6020840151909250620000be8162000071565b809150509250929050565b614e8480620000d96000396000f3fe608060405234801561001057600080fd5b50600436106100365760003560e01c80631f667ea81461003b57806385b7937a14610050575b600080fd5b61004e61004936600461439b565b610063565b005b61004e61005e366004614545565b610246565b61006e8b8b8661027f565b6100d25760405162461bcd60e51b815260206004820152602a60248201527f56657269666961626c65206365727469666963617465207665726966696361746044820152691a5bdb8819985a5b195960b21b60648201526084015b60405180910390fd5b6100df8b858b8b8e6105b4565b6101365760405162461bcd60e51b815260206004820152602260248201527f69737375616e6365205a4b506f4b20766572696669636174696f6e206661696c604482015261195960f21b60648201526084016100c9565b6101468b848b8b868c8c8c6106a8565b61019c5760405162461bcd60e51b815260206004820152602160248201527f4f70656e696e67205a4b506f4b20766572696669636174696f6e206661696c656044820152601960fa1b60648201526084016100c9565b600254604051639162c47d60e01b81528a51600482015260208b0151602482015260009182916001600160a01b0390911690639162c47d906044016000604051808303816000875af11580156101f6573d6000803e3d6000fd5b505050506040513d6000823e601f3d908101601f1916820160405261021e91908101906145c9565b915091506102378d338e8e8e888c608001518989610837565b50505050505050505050505050565b6001546001600160a01b0316331461025d57600080fd5b600080546001600160a01b0319166001600160a01b0392909216919091179055565b60008060008360800151905080518551146102cf5760405162461bcd60e51b815260206004820152601060248201526f2130b21031b7b6b134b730ba34b7b71760811b60448201526064016100c9565b6000805460405163144323a760e31b81526001600160a01b039091169063a2191d3890610300908a90600401614688565b602060405180830381865afa15801561031d573d6000803e3d6000fd5b505050506040513d601f19601f82011682018060405250810190610341919061469b565b9050806000036103815760405162461bcd60e51b815260206004820152600b60248201526a27379039bab1b41020a19760a91b60448201526064016100c9565b600054604051634b95cd3160e01b81526001600160a01b0390911690634b95cd31906103b39084908690600401614709565b602060405180830381865afa1580156103d0573d6000803e3d6000fd5b505050506040513d601f19601f820116820180604052508101906103f4919061472a565b6104335760405162461bcd60e51b815260206004820152601060248201526f2130b21031b7b6b134b730ba34b7b71760811b60448201526064016100c9565b60005b86518110156105415761051b8782815181106104545761045461474c565b60200260200101516000015160008054906101000a90046001600160a01b03166001600160a01b0316637e1b39bf8685815181106104945761049461474c565b60200260200101516040518263ffffffff1660e01b81526004016104b89190614688565b6040805180830381865afa1580156104d4573d6000803e3d6000fd5b505050506040513d601f19601f820116820180604052508101906104f89190614792565b89848151811061050a5761050a61474c565b602002602001015160200151610fe9565b93508361052f5760009450505050506105ad565b80610539816147c4565b915050610436565b5061054b85611083565b6105a55760405162461bcd60e51b815260206004820152602560248201527f6d617374657220736563726574206b657920766572696669636174696f6e2066604482015264185a5b195960da1b60648201526084016100c9565b600193505050505b9392505050565b6000806105cc8787608001518660000151888a61113b565b905060006105e0888860800151888a611521565b905060006105f38860800151868a6118e5565b90506106968761060a6106058a611b67565b611caf565b8460008054906101000a90046001600160a01b03166001600160a01b03166394dee9cc8e6040518263ffffffff1660e01b815260040161064a9190614688565b600060405180830381865afa158015610667573d6000803e3d6000fd5b505050506040513d6000823e601f3d908101601f1916820160405261068f91908101906147dd565b8786611d3e565b88511493505050505b95945050505050565b60006106bd856000015187602001518a612268565b6106c9576106c961486d565b6106e2898660200151886000015189602001518c61246c565b6106ee576106ee61486d565b60006106fc61060589611b67565b60008054604051632537ba7360e21b815292935090916001600160a01b03909116906394dee9cc90610732908e90600401614688565b600060405180830381865afa15801561074f573d6000803e3d6000fd5b505050506040513d6000823e601f3d908101601f1916820160405261077791908101906147dd565b905060005b8a602001515181101561080e576107cf83896000015183815181106107a3576107a361474c565b60200260200101518a6020015184815181106107c1576107c161474c565b60200260200101518561289c565b8b518051839081106107e3576107e361474c565b6020026020010151146107fc576000935050505061082b565b80610806816147c4565b91505061077c565b506108268b89600001518a60200151858a8a8a612bfa565b925050505b98975050505050505050565b600087516001600160401b0381111561085257610852613b6b565b60405190808252806020026020018201604052801561088b57816020015b610878613a91565b8152602001906001900390816108705790505b50905060005b8851811015610a24578881815181106108ac576108ac61474c565b602002602001015160000151600001518282815181106108ce576108ce61474c565b60200260200101516000600481106108e8576108e861474c565b602002015288518990829081106109015761090161474c565b602002602001015160000151602001518282815181106109235761092361474c565b602002602001015160016004811061093d5761093d61474c565b602002015288518990829081106109565761095661474c565b6020026020010151602001516000600281106109745761097461474c565b602002015182828151811061098b5761098b61474c565b60200260200101516002600481106109a5576109a561474c565b602002015288518990829081106109be576109be61474c565b6020026020010151602001516001600281106109dc576109dc61474c565b60200201518282815181106109f3576109f361474c565b6020026020010151600360048110610a0d57610a0d61474c565b602002015280610a1c816147c4565b915050610891565b506040805180820190915287518152602080890151908201528651516000906001600160401b03811115610a5a57610a5a613b6b565b604051908082528060200260200182016040528015610a9357816020015b610a80613aaf565b815260200190600190039081610a785790505b50905060005b885151811015610b57578851805182908110610ab757610ab761474c565b602002602001015160000151828281518110610ad557610ad561474c565b6020026020010151600060028110610aef57610aef61474c565b60200201528851805182908110610b0857610b0861474c565b602002602001015160200151828281518110610b2657610b2661474c565b6020026020010151600160028110610b4057610b4061474c565b602002015280610b4f816147c4565b915050610a99565b5060008860200151516001600160401b03811115610b7757610b77613b6b565b604051908082528060200260200182016040528015610bb057816020015b610b9d613acd565b815260200190600190039081610b955790505b50905060005b896020015151811015610ecd5789602001518181518110610bd957610bd961474c565b6020908102919091010151515151518251839083908110610bfc57610bfc61474c565b6020026020010151600060088110610c1657610c1661474c565b60200201818152505089602001518181518110610c3557610c3561474c565b60209081029190910181015151515101518251839083908110610c5a57610c5a61474c565b6020026020010151600160088110610c7457610c7461474c565b60200201818152505089602001518181518110610c9357610c9361474c565b60209081029190910181015151510151518251839083908110610cb857610cb861474c565b6020026020010151600260088110610cd257610cd261474c565b60200201818152505089602001518181518110610cf157610cf161474c565b6020908102919091018101515151015160016020020151828281518110610d1a57610d1a61474c565b6020026020010151600360088110610d3457610d3461474c565b60200201818152505089602001518181518110610d5357610d5361474c565b60209081029190910181015151015151518251839083908110610d7857610d7861474c565b6020026020010151600460088110610d9257610d9261474c565b60200201818152505089602001518181518110610db157610db161474c565b602090810291909101810151518101515101518251839083908110610dd857610dd861474c565b6020026020010151600560088110610df257610df261474c565b60200201818152505089602001518181518110610e1157610e1161474c565b602090810291909101810151518101510151518251839083908110610e3857610e3861474c565b6020026020010151600660088110610e5257610e5261474c565b60200201818152505089602001518181518110610e7157610e7161474c565b60209081029190910181015151810151015160016020020151828281518110610e9c57610e9c61474c565b6020026020010151600760088110610eb657610eb661474c565b602002015280610ec5816147c4565b915050610bb6565b5060008060009054906101000a90046001600160a01b03166001600160a01b031663a2191d388f6040518263ffffffff1660e01b8152600401610f109190614688565b602060405180830381865afa158015610f2d573d6000803e3d6000fd5b505050506040513d601f19601f82011682018060405250810190610f51919061469b565b905080600003610f915760405162461bcd60e51b815260206004820152600b60248201526a27379039bab1b41020a19760a91b60448201526064016100c9565b807f166d59876189083e188f08515e0b0492caeeddceebcdc9e16151f5f8b9dbfe318e878787878f8f8f8f604051610fd19998979695949392919061497d565b60405180910390a25050505050505050505050505050565b600080610ff585611b67565b905060006110188460016020020151600080516020614e2f8339815191526130b0565b90506000600080516020614e2f83398151915282840990506000600080516020614e2f83398151915286518490099050600061105b611055613101565b8461312a565b90506110708161106b8a8561312a565b613188565b9651965190961498975050505050505050565b600060015b600183606001515161109a9190614a86565b81101561113257826060015181815181106110b7576110b761474c565b60200260200101516000815181106110d1576110d161474c565b602002602001015183606001516000815181106110f0576110f061474c565b602002602001015160008151811061110a5761110a61474c565b6020026020010151146111205750600092915050565b8061112a816147c4565b915050611088565b50600192915050565b6060600082604001519050600081516001600160401b0381111561116157611161613b6b565b6040519080825280602002602001820160405280156111a657816020015b604080518082019091526000808252602082015281526020019060019003908161117f5790505b509050600084606001519050600081600183516111c39190614a86565b815181106111d3576111d361474c565b6020026020010151518660400151516111ec9190614a9d565b6001600160401b0381111561120357611203613b6b565b60405190808252806020026020018201604052801561122c578160200160208202803683370190505b506000805460405163fcd3c13160e01b8152929350909182916001600160a01b03169063fcd3c13190611265908f908f90600401614ab5565b600060405180830381865afa158015611282573d6000803e3d6000fd5b505050506040513d6000823e601f3d908101601f191682016040526112aa9190810190614ada565b905060005b600185516112bd9190614a86565b8110156113a65760005b8582815181106112d9576112d961474c565b602002602001015151811015611393578282815181106112fb576112fb61474c565b602002602001015181815181106113145761131461474c565b6020026020010151600103611381578582815181106113355761133561474c565b6020026020010151818151811061134e5761134e61474c565b60200260200101518585815181106113685761136861474c565b602090810291909101015261137e846001614a9d565b93505b8061138b816147c4565b9150506112c7565b508061139e816147c4565b9150506112af565b5060005b84600186516113b99190614a86565b815181106113c9576113c961474c565b6020026020010151518110156114555784600186516113e89190614a86565b815181106113f8576113f861474c565b602002602001015181815181106114115761141161474c565b602002602001015184848151811061142b5761142b61474c565b6020908102919091010152611441836001614a9d565b92508061144d816147c4565b9150506113aa565b5060006114646106058b611b67565b905060005b875181101561150f576114df61149c8d838151811061148a5761148a61474c565b60200260200101518c6000015161312a565b61106b6114c96114aa613101565b8c86815181106114bc576114bc61474c565b602002602001015161312a565b61106b868a87815181106114bc576114bc61474c565b8782815181106114f1576114f161474c565b60200260200101819052508080611507906147c4565b915050611469565b50949c9b505050505050505050505050565b60408051808201909152600080825260208201528151602083015160608401518051600090829061155490600190614a86565b815181106115645761156461474c565b60200260200101515186604001515161157d9190614a9d565b6001600160401b0381111561159457611594613b6b565b6040519080825280602002602001820160405280156115bd578160200160208202803683370190505b506000805460405163fcd3c13160e01b8152929350909182916001600160a01b03169063fcd3c131906115f6908e908e90600401614ab5565b600060405180830381865afa158015611613573d6000803e3d6000fd5b505050506040513d6000823e601f3d908101601f1916820160405261163b9190810190614ada565b905060005b6001855161164e9190614a86565b8110156117375760005b85828151811061166a5761166a61474c565b6020026020010151518110156117245782828151811061168c5761168c61474c565b602002602001015181815181106116a5576116a561474c565b6020026020010151600103611712578582815181106116c6576116c661474c565b602002602001015181815181106116df576116df61474c565b60200260200101518585815181106116f9576116f961474c565b602090810291909101015261170f846001614a9d565b93505b8061171c816147c4565b915050611658565b508061172f816147c4565b915050611640565b5060005b846001865161174a9190614a86565b8151811061175a5761175a61474c565b6020026020010151518110156117e65784600186516117799190614a86565b815181106117895761178961474c565b602002602001015181815181106117a2576117a261474c565b60200260200101518484815181106117bc576117bc61474c565b60209081029190910101526117d2836001614a9d565b9250806117de816147c4565b91505061173b565b5060008054604051632537ba7360e21b81526001600160a01b03909116906394dee9cc90611818908f90600401614688565b600060405180830381865afa158015611835573d6000803e3d6000fd5b505050506040513d6000823e601f3d908101601f1916820160405261185d91908101906147dd565b9050600061187f61186e8c8a61312a565b61106b611879613101565b8a61312a565b905060005b85518110156118d4576118c08261106b8584815181106118a6576118a661474c565b60200260200101518985815181106114bc576114bc61474c565b9150806118cc816147c4565b915050611884565b509c9b505050505050505050505050565b606081810151825181516000906118fe90600190614a86565b6001600160401b0381111561191557611915613b6b565b60405190808252806020026020018201604052801561195a57816020015b60408051808201909152600080825260208201528152602001906001900390816119335790505b50905060005b6001845161196e9190614a86565b811015611b5c576000805489516001600160a01b039091169063fe79cc8c908b908590811061199f5761199f61474c565b60200260200101516040518263ffffffff1660e01b81526004016119c39190614688565b600060405180830381865afa1580156119e0573d6000803e3d6000fd5b505050506040513d6000823e601f3d908101601f19168201604052611a0891908101906147dd565b90506000611a33898481518110611a2157611a2161474c565b6020026020010151600001518661312a565b9050611a958161106b611a44613101565b898781518110611a5657611a5661474c565b602002602001015160018b8981518110611a7257611a7261474c565b602002602001015151611a859190614a86565b815181106114bc576114bc61474c565b905060005b6001878581518110611aae57611aae61474c565b602002602001015151611ac19190614a86565b811015611b2857611b148261106b858481518110611ae157611ae161474c565b60200260200101518a8881518110611afb57611afb61474c565b602002602001015185815181106114bc576114bc61474c565b915080611b20816147c4565b915050611a9a565b5080848481518110611b3c57611b3c61474c565b602002602001018190525050508080611b54906147c4565b915050611960565b509695505050505050565b805160208083015160408051818152606081018252600094938592908201818036833701905050905060005b6020811015611bed57838160208110611bae57611bae61474c565b1a60f81b828281518110611bc457611bc461474c565b60200101906001600160f81b031916908160001a90535080611be5816147c4565b915050611b93565b5060005b6020811015611c5557828160208110611c0c57611c0c61474c565b1a60f81b82611c1c836020614a9d565b81518110611c2c57611c2c61474c565b60200101906001600160f81b031916908160001a90535080611c4d816147c4565b915050611bf1565b600282604051611c659190614b8a565b602060405180830381855afa158015611c82573d6000803e3d6000fd5b5050506040513d601f19601f82011682018060405250810190611ca5919061469b565b9695505050505050565b604080518082019091526000808252602082015260008080611cdf600080516020614e2f83398151915286614ba6565b90505b611ceb816131de565b9093509150600080516020614e0f8339815191528283098303611d24576040805180820190915290815260208101919091529392505050565b600080516020614e0f833981519152600182089050611ce2565b600080825184518651611d519190614a9d565b611d5b9190614a9d565b611d66906020614bc8565b611d719060a0614a9d565b6001600160401b03811115611d8857611d88613b6b565b6040519080825280601f01601f191660200182016040528015611db2576020820181803683370190505b5090506000611dc7611dc2613101565b611b67565b905060005b6020811015611e2657818160208110611de757611de761474c565b1a60f81b838281518110611dfd57611dfd61474c565b60200101906001600160f81b031916908160001a90535080611e1e816147c4565b915050611dcc565b50611e37611e32613260565b613320565b905060005b6020811015611ea057818160208110611e5757611e5761474c565b1a60f81b83611e67836020614a9d565b81518110611e7757611e7761474c565b60200101906001600160f81b031916908160001a90535080611e98816147c4565b915050611e3c565b50611eaa89611b67565b905060005b6020811015611f1357818160208110611eca57611eca61474c565b1a60f81b83611eda836040614a9d565b81518110611eea57611eea61474c565b60200101906001600160f81b031916908160001a90535080611f0b816147c4565b915050611eaf565b50611f1d88611b67565b905060005b6020811015611f8657818160208110611f3d57611f3d61474c565b1a60f81b83611f4d836060614a9d565b81518110611f5d57611f5d61474c565b60200101906001600160f81b031916908160001a90535080611f7e816147c4565b915050611f22565b50611f9087611b67565b905060005b6020811015611ff957818160208110611fb057611fb061474c565b1a60f81b83611fc0836080614a9d565b81518110611fd057611fd061474c565b60200101906001600160f81b031916908160001a90535080611ff1816147c4565b915050611f95565b5060a060005b87518110156120b25761202a88828151811061201d5761201d61474c565b6020026020010151611b67565b925060005b60208110156120925783816020811061204a5761204a61474c565b1a60f81b856120598584614a9d565b815181106120695761206961474c565b60200101906001600160f81b031916908160001a9053508061208a816147c4565b91505061202f565b5061209e826020614a9d565b9150806120aa816147c4565b915050611fff565b5060005b865181101561215c576120d487828151811061201d5761201d61474c565b925060005b602081101561213c578381602081106120f4576120f461474c565b1a60f81b856121038584614a9d565b815181106121135761211361474c565b60200101906001600160f81b031916908160001a90535080612134816147c4565b9150506120d9565b50612148826020614a9d565b915080612154816147c4565b9150506120b6565b5060005b85518110156122065761217e86828151811061201d5761201d61474c565b925060005b60208110156121e65783816020811061219e5761219e61474c565b1a60f81b856121ad8584614a9d565b815181106121bd576121bd61474c565b60200101906001600160f81b031916908160001a905350806121de816147c4565b915050612183565b506121f2826020614a9d565b9150806121fe816147c4565b915050612160565b5060006002846040516122199190614b8a565b602060405180830381855afa158015612236573d6000803e3d6000fd5b5050506040513d601f19601f82011682018060405250810190612259919061469b565b9b9a5050505050505050505050565b60408051600380825260808201909252600091829190816020015b60408051808201909152600080825260208201528152602001906001900390816122835750506040805160038082526080820190925291925060009190602082015b6122cd613aec565b8152602001906001900390816122c557905050905060005b865181101561245f5761230d6122f9613101565b86518051849081106114bc576114bc61474c565b836000815181106123205761232061474c565b602002602001018190525061234c612336613101565b866020015183815181106114bc576114bc61474c565b8360018151811061235f5761235f61474c565b602002602001018190525061237a612375613101565b613545565b8360028151811061238d5761238d61474c565b60200260200101819052508581815181106123aa576123aa61474c565b60209081029190910101515151825183906000906123ca576123ca61474c565b60200260200101819052506123dd613260565b826001815181106123f0576123f061474c565b602002602001018190525086818151811061240d5761240d61474c565b6020026020010151826002815181106124285761242861474c565b602002602001018190525061243d83836135d2565b61244d57600093505050506105ad565b80612457816147c4565b9150506122e5565b5060019695505050505050565b6000808451600361247d9190614a9d565b6001600160401b0381111561249457612494613b6b565b6040519080825280602002602001820160405280156124d957816020015b60408051808201909152600080825260208201528152602001906001900390816124b25790505b5090506000855160036124ec9190614a9d565b6001600160401b0381111561250357612503613b6b565b60405190808252806020026020018201604052801561253c57816020015b612529613aec565b8152602001906001900390816125215790505b506000805460405163730163bf60e01b815292935090916001600160a01b039091169063730163bf90612573908c90600401614688565b600060405180830381865afa158015612590573d6000803e3d6000fd5b505050506040513d6000823e601f3d908101601f191682016040526125b89190810190614c2c565b60008054604051630d97465960e31b815292935090916001600160a01b0390911690636cba32c8906125ee908d90600401614688565b600060405180830381865afa15801561260b573d6000803e3d6000fd5b505050506040513d6000823e601f3d908101601f191682016040526126339190810190614c2c565b905060005b895181101561288b5761264c612375613101565b8560008151811061265f5761265f61474c565b602002602001018190525089818151811061267c5761267c61474c565b6020026020010151846000815181106126975761269761474c565b60200260200101819052506126c36126ad613101565b886020015183815181106114bc576114bc61474c565b856001815181106126d6576126d661474c565b60200260200101819052508181815181106126f3576126f361474c565b60200260200101518460018151811061270e5761270e61474c565b6020026020010181905250612738612724613101565b88518051849081106114bc576114bc61474c565b8560028151811061274b5761274b61474c565b60200260200101819052508781815181106127685761276861474c565b602090810291909101015151600160200201518460028151811061278e5761278e61474c565b602002602001018190525060005b895181101561285c576127df6127b0613101565b896040015184815181106127c6576127c661474c565b602002602001015183815181106114bc576114bc61474c565b866127eb836003614a9d565b815181106127fb576127fb61474c565b60200260200101819052508381815181106128185761281861474c565b60200260200101518582600361282e9190614a9d565b8151811061283e5761283e61474c565b60200260200101819052508080612854906147c4565b91505061279c565b5061286785856135d2565b6128795760009550505050505061069f565b80612883816147c4565b915050612638565b5060019a9950505050505050505050565b600080825160206128ad9190614bc8565b6128b89060a0614a9d565b6001600160401b038111156128cf576128cf613b6b565b6040519080825280601f01601f1916602001820160405280156128f9576020820181803683370190505b5090506000612909611dc2613101565b905060005b6020811015612968578181602081106129295761292961474c565b1a60f81b83828151811061293f5761293f61474c565b60200101906001600160f81b031916908160001a90535080612960816147c4565b91505061290e565b612973611e32613260565b9150600090505b60208110156129de578181602081106129955761299561474c565b1a60f81b836129a5836020614a9d565b815181106129b5576129b561474c565b60200101906001600160f81b031916908160001a905350806129d6816147c4565b91505061297a565b6129e788611b67565b9150600090505b6020811015612a5257818160208110612a0957612a0961474c565b1a60f81b83612a19836040614a9d565b81518110612a2957612a2961474c565b60200101906001600160f81b031916908160001a90535080612a4a816147c4565b9150506129ee565b612a5b87613320565b9150600090505b6020811015612ac657818160208110612a7d57612a7d61474c565b1a60f81b83612a8d836060614a9d565b81518110612a9d57612a9d61474c565b60200101906001600160f81b031916908160001a90535080612abe816147c4565b915050612a62565b612acf86613320565b9150600090505b6020811015612b3a57818160208110612af157612af161474c565b1a60f81b83612b01836080614a9d565b81518110612b1157612b1161474c565b60200101906001600160f81b031916908160001a90535080612b32816147c4565b915050612ad6565b50600060a0815b8651831015612be857612b5f87848151811061201d5761201d61474c565b9350600090505b6020811015612bc957838160208110612b8157612b8161474c565b1a60f81b85612b908484614a9d565b81518110612ba057612ba061474c565b60200101906001600160f81b031916908160001a90535080612bc1816147c4565b915050612b66565b612bd4826020614a9d565b915082612be0816147c4565b935050612b41565b60006002866040516122199190614b8a565b60008087516003612c0b9190614a9d565b6001600160401b03811115612c2257612c22613b6b565b604051908082528060200260200182016040528015612c6757816020015b6040805180820190915260008082526020820152815260200190600190039081612c405790505b509050600088516003612c7a9190614a9d565b6001600160401b03811115612c9157612c91613b6b565b604051908082528060200260200182016040528015612cca57816020015b612cb7613aec565b815260200190600190039081612caf5790505b506000805460405163730163bf60e01b815292935090916001600160a01b039091169063730163bf90612d01908e90600401614688565b600060405180830381865afa158015612d1e573d6000803e3d6000fd5b505050506040513d6000823e601f3d908101601f19168201604052612d469190810190614c2c565b60008054604051630d97465960e31b815292935090916001600160a01b0390911690636cba32c890612d7c908f90600401614688565b600060405180830381865afa158015612d99573d6000803e3d6000fd5b505050506040513d6000823e601f3d908101601f19168201604052612dc19190810190614c2c565b905060005b875181101561309b5760005b8751811015612f2357604080518082019091526000808252602082015260015b8b8381518110612e0457612e0461474c565b6020026020010151516001612e199190614a9d565b811015612e9757612e838261106b8e8681518110612e3957612e3961474c565b6020026020010151600185612e4e9190614a86565b81518110612e5e57612e5e61474c565b602002602001015184886001612e749190614a9d565b612e7e9190614dcc565b61312a565b915080612e8f816147c4565b915050612df2565b50612ebb8e8381518110612ead57612ead61474c565b602002602001015182613188565b878381518110612ecd57612ecd61474c565b6020026020010181905250848281518110612eea57612eea61474c565b6020026020010151868381518110612f0457612f0461474c565b6020026020010181905250508080612f1b906147c4565b915050612dd2565b888281518110612f3557612f3561474c565b6020026020010151868281518110612f4f57612f4f61474c565b6020026020010181905250612f638b613545565b86612f6f836001614a9d565b81518110612f7f57612f7f61474c565b6020026020010181905250612f95612375613101565b86612fa1836002614a9d565b81518110612fb157612fb161474c565b6020026020010181905250828281518110612fce57612fce61474c565b6020026020010151858281518110612fe857612fe861474c565b60200260200101819052508b82815181106130055761300561474c565b60209081029190910181015151015185613020836001614a9d565b815181106130305761303061474c565b6020026020010181905250613044886138b4565b85613050836002614a9d565b815181106130605761306061474c565b602002602001018190525061307586866135d2565b61308857600096505050505050506130a5565b5080613093816147c4565b915050612dc6565b5060019450505050505b979650505050505050565b60008060405160208152602080820152602060408201528460608201526002840360808201528360a082015260208160c08360056107d05a03fa905192509050806130fa57600080fd5b5092915050565b604080518082018252600080825260209182015281518083019092526001825260029082015290565b6040805180820190915260008082526020820152613146613b11565b835181526020808501519082015260408101839052600060608360808460076107d05a03fa9050808061317557fe5b508061318057600080fd5b505092915050565b60408051808201909152600080825260208201526131a4613a91565b8351815260208085015181830152835160408301528301516060808301919091526000908360c08460066107d05a03fa9050808061317557fe5b60008080600080516020614e0f8339815191526003600080516020614e0f83398151915286600080516020614e0f833981519152888909090890506000613254827f0c19139cb84c680a6e14116da060561765e05aa45a1c72a34f082305b61f3f52600080516020614e0f833981519152613932565b91959194509092505050565b613268613aec565b50604080516080810182527f198e9393920d483a7260bfb731fb5d25f1aa493335a9e71297e485b7aef312c28183019081527f1800deef121f1e76426a00665e5c4479674322d4f75edadd46debd5cd992f6ed6060830152815281518083019092527f090689d0585ff075ec9e99ad690c3395bc4b313370b38ef355acdadcd122975b82527f12c85ea5db8c6deb4aab71808dcb408fe3d1e7690c43d37b4ce6cc0166fa7daa60208381019190915281019190915290565b60408051608080825260a082019092526000918291906020820181803683370190505083516020015190915060005b60208110156133a95781816020811061336a5761336a61474c565b1a60f81b8382815181106133805761338061474c565b60200101906001600160f81b031916908160001a905350806133a1816147c4565b91505061334f565b505082515160005b6020811015613415578181602081106133cc576133cc61474c565b1a60f81b836133dc836020614a9d565b815181106133ec576133ec61474c565b60200101906001600160f81b031916908160001a9053508061340d816147c4565b9150506133b1565b5050602083810151015160005b60208110156134865781816020811061343d5761343d61474c565b1a60f81b8361344d836040614a9d565b8151811061345d5761345d61474c565b60200101906001600160f81b031916908160001a9053508061347e816147c4565b915050613422565b505060208301515160005b60208110156134f5578181602081106134ac576134ac61474c565b1a60f81b836134bc836060614a9d565b815181106134cc576134cc61474c565b60200101906001600160f81b031916908160001a905350806134ed816147c4565b915050613491565b6002836040516135059190614b8a565b602060405180830381855afa158015613522573d6000803e3d6000fd5b5050506040513d601f19601f8201168201806040525081019061069f919061469b565b60408051808201909152600080825260208201528151600080516020614e0f8339815191529015801561357a57506020830151155b1561359a5750506040805180820190915260008082526020820152919050565b6040518060400160405280846000015181526020018285602001516135bf9190614ba6565b6135c99084614a86565b90529392505050565b600081518351146135e257600080fd5b825160006135f1826006614bc8565b90506000816001600160401b0381111561360d5761360d613b6b565b604051908082528060200260200182016040528015613636578160200160208202803683370190505b50905060005b83811015613871578681815181106136565761365661474c565b602002602001015160000151828260066136709190614bc8565b61367b906000614a9d565b8151811061368b5761368b61474c565b6020026020010181815250508681815181106136a9576136a961474c565b602002602001015160200151828260066136c39190614bc8565b6136ce906001614a9d565b815181106136de576136de61474c565b6020026020010181815250508581815181106136fc576136fc61474c565b6020908102919091010151515182613715836006614bc8565b613720906002614a9d565b815181106137305761373061474c565b60200260200101818152505085818151811061374e5761374e61474c565b60209081029190910181015151015182613769836006614bc8565b613774906003614a9d565b815181106137845761378461474c565b6020026020010181815250508581815181106137a2576137a261474c565b6020026020010151602001516000600281106137c0576137c061474c565b6020020151826137d1836006614bc8565b6137dc906004614a9d565b815181106137ec576137ec61474c565b60200260200101818152505085818151811061380a5761380a61474c565b6020026020010151602001516001600281106138285761382861474c565b602002015182613839836006614bc8565b613844906005614a9d565b815181106138545761385461474c565b602090810291909101015280613869816147c4565b91505061363c565b5061387a613b2f565b6000602082602086026020860160086107d05a03fa9050808061389957fe5b50806138a457600080fd5b5051151593505050505b92915050565b6138bc613aec565b60408051608081018252600081830181815260608301829052825282518084019093528083526020838101829052820192909252905b83518110156130fa5761391e828583815181106139115761391161474c565b6020026020010151613998565b91508061392a816147c4565b9150506138f2565b60008061393d613b2f565b613945613b4d565b602080825281810181905260408201819052606082018890526080820187905260a082018690528260c08360056107d05a03fa9250828061398257fe5b508261398d57600080fd5b505195945050505050565b6139a0613aec565b82516020808201519151818601518083015190518651808501519051888601519586015195516040805163186a4c7b60e21b81526004810199909952602489019690965260448801949094526064870192909252608486015260a485015260c484019290925260e48301919091525173__BN256G2_______________________________916361a931ec916101048083019260809291908290030181865af4158015613a50573d6000803e3d6000fd5b505050506040513d601f19601f82011682018060405250810190613a749190614dd8565b845160208087015192835291820192909252918152015292915050565b60405180608001604052806004906020820280368337509192915050565b60405180604001604052806002906020820280368337509192915050565b6040518061010001604052806008906020820280368337509192915050565b6040518060400160405280613aff613aaf565b8152602001613b0c613aaf565b905290565b60405180606001604052806003906020820280368337509192915050565b60405180602001604052806001906020820280368337509192915050565b6040518060c001604052806006906020820280368337509192915050565b634e487b7160e01b600052604160045260246000fd5b604080519081016001600160401b0381118282101715613ba357613ba3613b6b565b60405290565b604051602081016001600160401b0381118282101715613ba357613ba3613b6b565b60405160a081016001600160401b0381118282101715613ba357613ba3613b6b565b604051601f8201601f191681016001600160401b0381118282101715613c1557613c15613b6b565b604052919050565b600082601f830112613c2e57600080fd5b81356001600160401b03811115613c4757613c47613b6b565b613c5a601f8201601f1916602001613bed565b818152846020838601011115613c6f57600080fd5b816020850160208301376000918101602001919091529392505050565b60006001600160401b03821115613ca557613ca5613b6b565b5060051b60200190565b600060408284031215613cc157600080fd5b613cc9613b81565b9050813581526020820135602082015292915050565b600082601f830112613cf057600080fd5b613cf8613b81565b806040840185811115613d0a57600080fd5b845b81811015613d24578035845260209384019301613d0c565b509095945050505050565b600082601f830112613d4057600080fd5b81356020613d55613d5083613c8c565b613bed565b82815260079290921b84018101918181019086841115613d7457600080fd5b8286015b84811015611b5c5760808189031215613d915760008081fd5b613d99613b81565b613da38983613caf565b8152613db28960408401613cdf565b81860152835291830191608001613d78565b600082601f830112613dd557600080fd5b81356020613de5613d5083613c8c565b82815260069290921b84018101918181019086841115613e0457600080fd5b8286015b84811015611b5c57613e1a8882613caf565b835291830191604001613e08565b600060808284031215613e3a57600080fd5b613e42613b81565b9050613e4e8383613cdf565b8152613e5d8360408401613cdf565b602082015292915050565b600060408284031215613e7a57600080fd5b613e82613b81565b905081356001600160401b0380821115613e9b57600080fd5b613ea785838601613dc4565b8352602091508184013581811115613ebe57600080fd5b84019050601f8082018613613ed257600080fd5b8135613ee0613d5082613c8c565b81815260089190911b83018401908481019088831115613eff57600080fd5b938501935b82851015613f8b5761010080868b031215613f1f5760008081fd5b613f27613ba9565b8a86880112613f365760008081fd5b613f3e613b81565b91870191808c841115613f515760008081fd5b885b84811015613f7357613f658e82613e28565b8352918a0191608001613f53565b50825250835250610100949094019390850190613f04565b808688015250505050505092915050565b600082601f830112613fad57600080fd5b81356020613fbd613d5083613c8c565b82815260059290921b84018101918181019086841115613fdc57600080fd5b8286015b84811015611b5c5780356001600160401b03811115613fff5760008081fd5b61400d8986838b0101613dc4565b845250918301918301613fe0565b600082601f83011261402c57600080fd5b8135602061403c613d5083613c8c565b82815260079290921b8401810191818101908684111561405b57600080fd5b8286015b84811015611b5c576140718882613e28565b83529183019160800161405f565b600082601f83011261409057600080fd5b813560206140a0613d5083613c8c565b82815260059290921b840181019181810190868411156140bf57600080fd5b8286015b84811015611b5c57803583529183019183016140c3565b600082601f8301126140eb57600080fd5b813560206140fb613d5083613c8c565b82815260059290921b8401810191818101908684111561411a57600080fd5b8286015b84811015611b5c5780356001600160401b0381111561413d5760008081fd5b61414b8986838b010161407f565b84525091830191830161411e565b600082601f83011261416a57600080fd5b8135602061417a613d5083613c8c565b82815260059290921b8401810191818101908684111561419957600080fd5b8286015b84811015611b5c5780356001600160401b038111156141bc5760008081fd5b6141ca8986838b0101613c1d565b84525091830191830161419d565b600060a082840312156141ea57600080fd5b6141f2613bcb565b9050813581526020820135602082015260408201356001600160401b038082111561421c57600080fd5b6142288583860161407f565b6040840152606084013591508082111561424157600080fd5b61424d858386016140da565b6060840152608084013591508082111561426657600080fd5b5061427384828501614159565b60808301525092915050565b60006060828403121561429157600080fd5b604051606081016001600160401b0382821081831117156142b4576142b4613b6b565b8160405282935084359150808211156142cc57600080fd5b6142d88683870161407f565b835260208501359150808211156142ee57600080fd5b6142fa8683870161407f565b6020840152604085013591508082111561431357600080fd5b50614320858286016140da565b6040830152505092915050565b60006040828403121561433f57600080fd5b614347613b81565b905081356001600160401b038082111561436057600080fd5b61436c8583860161401b565b8352602084013591508082111561438257600080fd5b5061438f8482850161401b565b60208301525092915050565b60008060008060008060008060008060006101808c8e0312156143bd57600080fd5b6001600160401b03808d3511156143d357600080fd5b6143e08e8e358f01613c1d565b9b508060208e013511156143f357600080fd5b6144038e60208f01358f01613d2f565b9a506144128e60408f01613caf565b99508060808e0135111561442557600080fd5b6144358e60808f01358f01613e68565b98508060a08e0135111561444857600080fd5b6144588e60a08f01358f01613f9c565b97508060c08e0135111561446b57600080fd5b61447b8e60c08f01358f01613dc4565b96508060e08e0135111561448e57600080fd5b61449e8e60e08f01358f0161401b565b9550806101008e013511156144b257600080fd5b6144c38e6101008f01358f016141d8565b9450806101208e013511156144d757600080fd5b6144e88e6101208f01358f0161427f565b9350806101408e013511156144fc57600080fd5b61450d8e6101408f01358f0161432d565b9250806101608e0135111561452157600080fd5b506145338d6101608e01358e01614159565b90509295989b509295989b9093969950565b60006020828403121561455757600080fd5b81356001600160a01b03811681146105ad57600080fd5b600082601f83011261457f57600080fd5b8151602061458f613d5083613c8c565b82815260059290921b840181019181810190868411156145ae57600080fd5b8286015b84811015611b5c57805183529183019183016145b2565b600080604083850312156145dc57600080fd5b82516001600160401b03808211156145f357600080fd5b6145ff8683870161456e565b9350602085015191508082111561461557600080fd5b506146228582860161456e565b9150509250929050565b60005b8381101561464757818101518382015260200161462f565b83811115614656576000848401525b50505050565b6000815180845261467481602086016020860161462c565b601f01601f19169290920160200192915050565b6020815260006105ad602083018461465c565b6000602082840312156146ad57600080fd5b5051919050565b600081518084526020808501808196508360051b8101915082860160005b858110156146fc5782840389526146ea84835161465c565b988501989350908401906001016146d2565b5091979650505050505050565b82815260406020820152600061472260408301846146b4565b949350505050565b60006020828403121561473c57600080fd5b815180151581146105ad57600080fd5b634e487b7160e01b600052603260045260246000fd5b60006040828403121561477457600080fd5b61477c613b81565b9050815181526020820151602082015292915050565b6000604082840312156147a457600080fd5b6105ad8383614762565b634e487b7160e01b600052601160045260246000fd5b6000600182016147d6576147d66147ae565b5060010190565b600060208083850312156147f057600080fd5b82516001600160401b0381111561480657600080fd5b8301601f8101851361481757600080fd5b8051614825613d5082613c8c565b81815260069190911b8201830190838101908783111561484457600080fd5b928401925b828410156130a55761485b8885614762565b82528482019150604084019350614849565b634e487b7160e01b600052600160045260246000fd5b8060005b6002811015614656578151845260209384019390910190600101614887565b600081518084526020808501945080840160005b838110156148e0576148cd878351614883565b60409690960195908201906001016148ba565b509495945050505050565b60008151808452602080850194508084016000805b8481101561494157825188835b600881101561492a5782518252918601919086019060010161490d565b505050610100979097019691830191600101614900565b50959695505050505050565b600081518084526020808501945080840160005b838110156148e057815187529582019590820190600101614961565b6001600160a01b038a16815261014060208083018290528a519183018290526000916101608401918c81019184805b828110156149ec57845186835b60048110156149d6578251825291860191908601906001016149b9565b50505060809590950194938301936001016149ac565b50505050506149fe604084018b614883565b8281036080840152614a10818a6148a6565b905082810360a0840152614a2481896148eb565b905082810360c0840152614a3881886146b4565b905082810360e0840152614a4c81876146b4565b9050828103610100840152614a61818661494d565b9050828103610120840152614a76818561494d565b9c9b505050505050505050505050565b600082821015614a9857614a986147ae565b500390565b60008219821115614ab057614ab06147ae565b500190565b604081526000614ac8604083018561465c565b828103602084015261069f81856146b4565b60006020808385031215614aed57600080fd5b82516001600160401b0380821115614b0457600080fd5b818501915085601f830112614b1857600080fd5b8151614b26613d5082613c8c565b81815260059190911b83018401908481019088831115614b4557600080fd5b8585015b83811015614b7d57805185811115614b615760008081fd5b614b6f8b89838a010161456e565b845250918601918601614b49565b5098975050505050505050565b60008251614b9c81846020870161462c565b9190910192915050565b600082614bc357634e487b7160e01b600052601260045260246000fd5b500690565b6000816000190483118215151615614be257614be26147ae565b500290565b600082601f830112614bf857600080fd5b614c00613b81565b806040840185811115614c1257600080fd5b845b81811015613d24578051845260209384019301614c14565b60006020808385031215614c3f57600080fd5b82516001600160401b03811115614c5557600080fd5b8301601f81018513614c6657600080fd5b8051614c74613d5082613c8c565b81815260079190911b82018301908381019087831115614c9357600080fd5b928401925b828410156130a55760808489031215614cb15760008081fd5b614cb9613b81565b614cc38986614be7565b8152614cd28960408701614be7565b8187015282526080939093019290840190614c98565b600181815b80851115614d23578160001904821115614d0957614d096147ae565b80851615614d1657918102915b93841c9390800290614ced565b509250929050565b600082614d3a575060016138ae565b81614d47575060006138ae565b8160018114614d5d5760028114614d6757614d83565b60019150506138ae565b60ff841115614d7857614d786147ae565b50506001821b6138ae565b5060208310610133831016604e8410600b8410161715614da6575081810a6138ae565b614db08383614ce8565b8060001904821115614dc457614dc46147ae565b029392505050565b60006105ad8383614d2b565b60008060008060808587031215614dee57600080fd5b50508251602084015160408501516060909501519196909550909250905056fe30644e72e131a029b85045b68181585d97816a916871ca8d3c208c16d87cfd4730644e72e131a029b85045b68181585d2833e84879b9709143e1f593f0000001a2646970667358221220095d013fc26af1501d122bdea9b1eb199f33c41d1c07dba23ddf1a848a604d9d64736f6c634300080d0033",
  "immutableReferences": {},
  "source": "// SPDX-License-Identifier: GPL-3.0\npragma solidity >=0.7.0 <0.9.0;\npragma experimental ABIEncoderV2;\n\nimport { G } from \"../libraries/G.sol\";\nimport {Params} from \"./Params.sol\";\nimport {Accumulator} from \"./Accumulator.sol\";\n\ncontract Request {\n    Params private params;\n    address private owner;\n    Accumulator private acc;\n\n    constructor(Params _params, Accumulator _acc) {\n        owner = msg.sender;\n        params = _params;\n        acc = _acc;\n    }\n\n    modifier onlyOwner {\n        require(msg.sender == owner);\n        _;\n    }\n\n    function set_params(address addr) public onlyOwner {\n        params = Params(addr);\n    }\n    \n    struct Ciphershare {\n        G.G2Point[2] X;\n    }\n  \n    struct Compresser{\n        G.G1Point[] commitments;\n        Ciphershare[] ciphershares;\n    }\n\n    struct G2PointCompresser {\n        G.G2Point[] Dw;\n        G.G2Point[] Ew;\n    }\n\n    struct IssueProof {\n        uint256 c;\n        uint256 rr;\n        uint256[] ros;\n        uint256[][] total_rm;\n        string[] combination;\n    }\n\n    struct OpenProof {\n        uint256[] c;\n        uint256[] rr;\n        uint256[][] rs;  \n    }\n    \n    struct Vcert {\n        G.G1Point commit;\n        uint256[2] signature;\n    }\n\n    // mapping(uint256 => mapping(uint256 => mapping(uint256 => bool))) private Requested;\n\n    // function isRequested(string memory name, Vcert memory cert) private view returns(bool) {\n    //     uint256 id = params.getMapCredentials(name);\n    //     require(id != 0, \"No such AC.\");\n    //     return Requested[id][cert.commit.X][cert.commit.Y];\n    // }\n    \n    event emitRequest(uint256 indexed id, address sender, uint256[4][] vcerts, uint256[2] cm, uint256[2][] commitments, uint256[8][] ciphershares, string[] public_m, string[] combination,uint256[] validator_shares,uint256[] opener_shares);\n\n    function check_hr_bo(string memory name, G.G1Point[] memory commitments, Ciphershare[] memory ciphershares, G.G1Point memory h, G.G1Point[][] memory hidden_p, G.G1Point[] memory hr, G.G2Point[] memory bo) private view returns(bool) {\n        G.G1Point[] memory p_X = new G.G1Point[](commitments.length + 3);\n        G.G2Point[] memory p_Y = new G.G2Point[](commitments.length + 3);\n        G.G2Point[] memory beta =  params.get_beta(name);\n        G.G2Point[] memory opk =  params.get_opk(name);\n        for(uint256 i = 0; i< hr.length; i++) {\n            uint256 j = 0;\n            for(j=0; j< bo.length; j++) {\n                G.G1Point memory tmp = G.G1Point(0,0); //= G.g1mul(hidden_p[j][0], (i+1));\n                for(uint256 l=1; l < 1+hidden_p[j].length; l++) {\n                    tmp = G.g1add(tmp, G.g1mul(hidden_p[j][l-1], (i+1) ** l));\n                }\n                p_X[j] = G.g1add(commitments[j], tmp);\n                p_Y[j] = beta[j];\n            }\n            p_X[j] = hr[i];\n            p_X[j+1] = G.g1neg(h);\n            p_X[j+2] = G.g1neg(G.P1());\n            \n            p_Y[j] = opk[i];\n            p_Y[j+1] = ciphershares[i].X[1];\n            p_Y[j+2] = G.ec_sum(bo);\n            \n            if(!G.pairing(p_X, p_Y)) {\n                return false;\n            }\n        }\n        return true;\n    }\n\n    function check_open_proof(string memory name, OpenProof memory proof, G.G1Point memory cm, Compresser memory compressed_params,  G2PointCompresser memory compressedG2points, G.G1Point[][] memory hidden_p, G.G1Point[] memory hr, G.G2Point[] memory bo) private view returns (bool) {\n        assert(verify_Dw(compressedG2points.Dw, compressed_params.ciphershares, proof));\n        assert(verify_Ew(name, compressedG2points.Ew, compressed_params.commitments, compressed_params.ciphershares, proof));\n        G.G1Point memory h = G.HashToPoint(uint256(G.G1_to_binary256(cm)));\n        G.G1Point[] memory hs = params.get_hs(name);\n        for(uint256 i=0; i<proof.rr.length; i++) {\n            if(proof.c[i] != ToChallengeOpen(h, compressedG2points.Dw[i], compressedG2points.Ew[i], hs)) {\n                return false;\n            }\n        }\n        return (check_hr_bo(name, compressed_params.commitments, compressed_params.ciphershares, h, hidden_p, hr, bo));\n    }\n\n    function check_issue_proof(string memory name, IssueProof memory proof, G.G1Point memory cm, Compresser memory compressed_params, Vcert[] memory vcerts) private view returns (bool) {\n        G.G1Point[] memory Aw = calculate_Aw(name, proof.combination, compressed_params.commitments, cm, proof);\n        G.G1Point memory Bw = calculate_Bw(name, proof.combination, cm, proof);\n        G.G1Point[] memory Cw = calculate_Cw(proof.combination, vcerts, proof); \n        return (proof.c == ToChallengeIssue(cm, G.HashToPoint(uint256(G.G1_to_binary256(cm))), Bw, params.get_hs(name), Aw, Cw));\n    }\n\n    function check_Vcerts(string memory name, Vcert[] memory vcerts, IssueProof memory iproof) private view returns(bool) {\n        // require(isRequested(name, vcerts[0]), \"Verifiable certificate already used.\");\n        bool evaluated;\n        string[] memory combination = iproof.combination;\n        require (vcerts.length == combination.length, \"Bad combination.\");\n        uint256 id = params.getMapCredentials(name);\n        require(id != 0, \"No such AC.\");\n        require(params.checkCombination(id, combination), \"Bad combination.\");\n        for (uint256 i = 0; i < vcerts.length; i++) {//each Vcert is done ECC verification\n            evaluated = G.do_ecdsa_verify(vcerts[i].commit, params.get_ttpKeys(combination[i]), vcerts[i].signature);\n            if(!evaluated) {\n                return false;\n            }\n        }\n        require(check_sk(iproof), \"master secret key verification failed\");\n        return true;\n    }\n\n    function check_sk(IssueProof memory proof) private pure returns(bool) {\n        for (uint256 i=1; i < proof.total_rm.length-1; i++) {  // both private and public attributes proof is included.\n            if(proof.total_rm[0][0] != proof.total_rm[i][0]) {\n                return false;\n            }\n        }\n        return true;\n    }\n\n    function RequestCred(string memory name, Vcert[] memory vcerts, G.G1Point memory cm, Compresser memory compressed_params, G.G1Point[][] memory hidden_p, G.G1Point[] memory hr, G.G2Point[] memory bo, IssueProof memory iproof, OpenProof memory oproof, G2PointCompresser memory compressedG2points, string[] memory public_m) public {\n        //Below 3 checks must be made local\n        require(check_Vcerts(name, vcerts, iproof), \"Verifiable certificate verification failed\");//Vcert verification\n        require(check_issue_proof(name, iproof, cm, compressed_params, vcerts), \"issuance ZKPoK verification failed\");//Issuance verification\n        require(check_open_proof(name, oproof, cm, compressed_params, compressedG2points, hidden_p, hr, bo), \"Opening ZKPoK verification failed\");//Opening Verification\n        (uint256[] memory validator_shares, uint256[] memory opener_shares) = acc.generate_kr_shares(cm);\n        logging(name, msg.sender, vcerts, cm, compressed_params, public_m, iproof.combination, validator_shares, opener_shares);\n        //Need to send iproof, oproof, compressedG2points, hidden_p, hr, bo also to Validator\n        //Can do Opener verification at opener itself. Then, get true from all and then perform logging.\n        //\"hidden_p\": product of hash of commitment and m polynomials that hide private attributes\n        //\"hr\": product of hash of commitment and random number\n        //\"bo\": product of aggregated validator key and random number array \"os\"\n    }\n\n    function logging(string memory name, address sender, Vcert[] memory certs, G.G1Point memory cm, Compresser memory compressed_params, string[] memory public_m, string[] memory combination,uint256[] memory validator_shares,uint256[] memory opener_shares) private {\n        uint256[4][] memory vcerts = new uint256[4][](certs.length); // [cert.commit.X, cert.commit.Y, cert.signature[0], cert.signature[1]];\n        for (uint256 i=0;i<certs.length;i++) {\n            vcerts[i][0] = certs[i].commit.X;\n            vcerts[i][1] = certs[i].commit.Y;\n            vcerts[i][2] = certs[i].signature[0];\n            vcerts[i][3] = certs[i].signature[1];\n        }\n        uint256[2] memory commitment = [cm.X, cm.Y];\n        uint256[2][] memory X = new uint256[2][](compressed_params.commitments.length);\n        for (uint256 i=0;i<compressed_params.commitments.length;i++) {\n            X[i][0] = compressed_params.commitments[i].X;\n            X[i][1] = compressed_params.commitments[i].Y;\n        }\n        uint256[8][] memory Y = new uint256[8][](compressed_params.ciphershares.length);\n        for(uint256 i=0; i<compressed_params.ciphershares.length;i++){\n            Y[i][0] = compressed_params.ciphershares[i].X[0].X[0];\n            Y[i][1] = compressed_params.ciphershares[i].X[0].X[1];\n            Y[i][2] = compressed_params.ciphershares[i].X[0].Y[0];\n            Y[i][3] = compressed_params.ciphershares[i].X[0].Y[1];\n            Y[i][4] = compressed_params.ciphershares[i].X[1].X[0];\n            Y[i][5] = compressed_params.ciphershares[i].X[1].X[1];\n            Y[i][6] = compressed_params.ciphershares[i].X[1].Y[0];\n            Y[i][7] = compressed_params.ciphershares[i].X[1].Y[1];\n        }\n        uint256 id = params.getMapCredentials(name);\n        require(id != 0, \"No such AC.\");\n\n        // Requested[id][cert.commit.X][cert.commit.Y] = true;\n        emit emitRequest(id, sender, vcerts, commitment, X, Y, public_m, combination, validator_shares,opener_shares);\n    }\n\n    function calculate_Aw(string memory name, string[] memory combination, G.G1Point[] memory commitments, G.G1Point memory cm, IssueProof memory proof) private view returns (G.G1Point[] memory) {\n        uint256[] memory ros = proof.ros;\n        G.G1Point[] memory Aw = new G.G1Point[](ros.length);\n        uint256[][] memory total_rm = proof.total_rm;\n        uint256[] memory rm = new uint256[](proof.ros.length + total_rm[total_rm.length-1].length);\n        uint256 k = 0;\n        uint256[][] memory include_indexes = params.get_include_indexes(name, combination);\n        for (uint256 i = 0; i < total_rm.length - 1; i++) {\n            for (uint256 j = 0; j < total_rm[i].length; j++) {\n                if (include_indexes[i][j] == 1){\n                    rm[k] = total_rm[i][j];\n                    k = k+1;\n                }\n            }\n        }\n        for (uint256 i=0; i< total_rm[total_rm.length-1].length; i++) {\n            rm[k] =  total_rm[total_rm.length-1][i];\n            k = k+1;\n        } \n        G.G1Point memory h = G.HashToPoint(uint256(G.G1_to_binary256(cm)));\n        for(uint256 i=0; i < ros.length; i++) {\n            Aw[i] = G.g1add(G.g1mul(commitments[i], proof.c), G.g1add(G.g1mul(G.P1(), ros[i]), G.g1mul(h, rm[i])));\n        }\n        return Aw;\n    }\n\n    function calculate_Bw(string memory name, string[] memory combination, G.G1Point memory cm, IssueProof memory proof) private view returns (G.G1Point memory) {\n        uint256 c = proof.c;\n        uint256 rr = proof.rr;\n        uint256[][] memory total_rm = proof.total_rm;\n        uint256[] memory rm = new uint256[](proof.ros.length + total_rm[total_rm.length-1].length);\n        uint256 k = 0;\n        uint256[][] memory include_indexes = params.get_include_indexes(name, combination);\n        for (uint256 i = 0; i < total_rm.length - 1; i++) {\n            for (uint256 j = 0; j < total_rm[i].length; j++) {\n                if (include_indexes[i][j] == 1){\n                    rm[k] = total_rm[i][j];\n                    k = k+1;\n                }\n            }\n        }\n        for (uint256 i=0; i< total_rm[total_rm.length-1].length; i++) {\n            rm[k] =  total_rm[total_rm.length-1][i];\n            k = k+1;\n        }\n        G.G1Point[] memory hs = params.get_hs(name);\n        G.G1Point memory Bw = G.g1add(G.g1mul(cm, c), G.g1mul(G.P1(), rr));\n        for(uint256 i=0; i< rm.length; i++) {\n            Bw = G.g1add(Bw, G.g1mul(hs[i], rm[i]));\n        }\n        return Bw;\n    }\n\n    function verify_Dw(G.G2Point[] memory Dw, Ciphershare[] memory ciphershares, OpenProof memory proof) private view returns(bool) {\n        // Dw and rr should be same length\n        G.G1Point[] memory AA = new G.G1Point[](3);\n        G.G2Point[] memory AB = new G.G2Point[](3);\n        for(uint256 i=0; i< Dw.length; i++) {\n            AA[0] = G.g1mul(G.P1(), proof.c[i]);\n            AA[1] = G.g1mul(G.P1(), proof.rr[i]);\n            AA[2] = G.g1neg(G.P1());\n            AB[0] = ciphershares[i].X[0];\n            AB[1] = G.P2();\n            AB[2] = Dw[i];\n            if (!G.pairing(AA, AB)) {\n                return false;\n            }\n        }\n        return true;\n    }\n\n    function verify_Ew(string memory name, G.G2Point[] memory Ew, G.G1Point[] memory commitments, Ciphershare[] memory ciphershares, OpenProof memory proof) private view returns(bool) {\n        G.G1Point[] memory AA = new G.G1Point[](3 + commitments.length);\n        G.G2Point[] memory AB = new G.G2Point[](3 + commitments.length);\n        G.G2Point[] memory beta =  params.get_beta(name); // Name of AC.\n        G.G2Point[] memory opk =  params.get_opk(name);\n        for(uint256 i=0; i< Ew.length; i++) {\n            AA[0] = G.g1neg(G.P1());\n            AB[0] = Ew[i];\n            AA[1] = G.g1mul(G.P1(), proof.rr[i]);\n            AB[1] = opk[i];\n            AA[2] = G.g1mul(G.P1(), proof.c[i]);\n            AB[2] = ciphershares[i].X[1];\n            for(uint256 j=0; j < commitments.length; j++) {\n                AA[j+3] = G.g1mul(G.P1(), proof.rs[i][j]);\n                AB[j+3] = beta[j]; \n            }\n            if (!G.pairing(AA, AB)) {\n                return false;\n            }\n        }\n        return true;\n    }\n\n    function calculate_Cw(string[] memory combination, Vcert[] memory vcerts, IssueProof memory proof) private view returns(G.G1Point[] memory){\n        uint256[][] memory total_rm = proof.total_rm;\n        uint256 c = proof.c;\n        G.G1Point[] memory Cw = new G.G1Point[](total_rm.length - 1);\n        for (uint256 i = 0;  i < total_rm.length - 1; i++) {\n            G.G1Point[] memory hs = params.get_ttp_params(combination[i]);\n            G.G1Point memory tmp = G.g1mul(vcerts[i].commit, c);\n            tmp = G.g1add(tmp, G.g1mul(G.P1(), total_rm[i][total_rm[i].length-1]));\n            for (uint256 j = 0; j < total_rm[i].length - 1; j++) {\n                tmp = G.g1add(tmp, G.g1mul(hs[j], total_rm[i][j]));\n            }\n            Cw[i] = tmp;\n        }\n        return Cw;\n    }\n\n    function ToChallengeIssue(G.G1Point memory cm, G.G1Point memory h, G.G1Point memory Bw, G.G1Point[] memory hs, G.G1Point[] memory Aw, G.G1Point[] memory Cw)\n                                        internal pure returns (uint256) {\n        bytes memory Cstring = new bytes(160 + (hs.length + Aw.length + Cw.length) * 32);\n        bytes32 X = G.G1_to_binary256(G.P1());\n        for (uint256 i=0; i < 32 ; i++) {\n            Cstring[i] = X[i];\n        }\n        X = G.G2_to_binary256(G.P2());\n        for (uint256 i=0; i < 32 ; i++) {\n            Cstring[i+32] = X[i];\n        }\n        X = G.G1_to_binary256(cm);\n        for (uint256 i=0; i < 32 ; i++) {\n            Cstring[i+64] = X[i];\n        }\n        X = G.G1_to_binary256(h);\n        for (uint256 i=0; i < 32 ; i++) {\n            Cstring[i+96] = X[i];\n        }\n        X = G.G1_to_binary256(Bw);\n        for (uint256 i=0; i < 32 ; i++) {\n            Cstring[i+128] = X[i];\n        }\n        \n        uint256 location = 160;\n        for(uint256 i=0; i < hs.length; i++) {\n            X = G.G1_to_binary256(hs[i]);\n            for (uint256 j=0; j < 32 ; j++) {\n                Cstring[j+location] = X[j];\n            }\n            location = location + 32;\n        }\n        for(uint256 i=0; i< Aw.length; i++){\n            X = G.G1_to_binary256(Aw[i]);\n            for (uint256 j=0; j < 32 ; j++) {\n                Cstring[j+location] = X[j];\n            }\n            location = location + 32;\n        }\n        for(uint256 i=0; i< Cw.length; i++){\n            X = G.G1_to_binary256(Cw[i]);\n            for (uint256 j=0; j < 32 ; j++) {\n                Cstring[j+location] = X[j];\n            }\n            location = location + 32;\n        }\n\n        bytes32 Chash =  sha256(Cstring);\n        return uint256(Chash);\n    }\n\n\n    function ToChallengeOpen(G.G1Point memory h, G.G2Point memory Aw, G.G2Point memory Bw, G.G1Point[] memory hs)\n                                        internal pure returns (uint256) {\n        bytes memory Cstring = new bytes(160 + (hs.length) * 32);\n        bytes32 X = G.G1_to_binary256(G.P1());\n        uint256 i = 0;\n        for (i=0; i< 32 ; i++) {\n            Cstring[i] = X[i];\n        }\n        X = G.G2_to_binary256(G.P2());\n        for (i=0; i< 32 ; i++) {\n            Cstring[i+32] = X[i];\n        }\n        X = G.G1_to_binary256(h);\n        for (i=0; i< 32 ; i++) {\n            Cstring[i+64] = X[i];\n        }\n        X = G.G2_to_binary256(Aw);\n        for (i=0; i< 32 ; i++) {\n            Cstring[i+96] = X[i];\n        }\n        X = G.G2_to_binary256(Bw);\n        for (i=0; i< 32 ; i++) {\n            Cstring[i+128] = X[i];\n        }\n        \n        uint256 location = 160;\n        uint256 j = 0;\n        for(i=0; i < hs.length; i++) {\n            X = G.G1_to_binary256(hs[i]);\n            for (j=0; j< 32 ; j++) {\n                Cstring[j+location] = X[j];\n            }\n            location = location + 32;\n        }\n        bytes32 Chash =  sha256(Cstring);\n        return uint256(Chash);\n    }\n}",
  "sourcePath": "/home/neel/acad/DTRAC/ravc-main/contracts/Request.sol",
  "compiler": {
    "name": "solc",
    "version": "0.8.13+commit.abaa5c0e.Emscripten.clang"
  },
  "schemaVersion": "3.4.13",
  "updatedAt": "2023-06-09T10:07:54.954Z",
  "networkType": "ethereum",
  "devdoc": {
    "kind": "dev",
    "methods": {},
    "version": 1
  },
  "userdoc": {
    "kind": "user",
    "methods": {},
    "version": 1
  }
}