{
  "contractName": "Verify",
  "abi": [
    {
      "inputs": [
        {
          "internalType": "contract Params",
          "name": "_params",
          "type": "address"
        }
      ],
      "stateMutability": "nonpayable",
      "type": "constructor"
    },
    {
      "anonymous": false,
      "inputs": [
        {
          "indexed": true,
          "internalType": "uint256",
          "name": "id",
          "type": "uint256"
        },
        {
          "indexed": false,
          "internalType": "uint256[4]",
          "name": "credential",
          "type": "uint256[4]"
        },
        {
          "indexed": false,
          "internalType": "string[]",
          "name": "public_m",
          "type": "string[]"
        },
        {
          "indexed": false,
          "internalType": "uint256[]",
          "name": "disclosed_indexes",
          "type": "uint256[]"
        },
        {
          "indexed": false,
          "internalType": "string[]",
          "name": "disclosed_attributes",
          "type": "string[]"
        }
      ],
      "name": "emitVerify",
      "type": "event"
    },
    {
      "inputs": [
        {
          "internalType": "address",
          "name": "addr",
          "type": "address"
        }
      ],
      "name": "set_params",
      "outputs": [],
      "stateMutability": "nonpayable",
      "type": "function"
    },
    {
      "inputs": [
        {
          "internalType": "string",
          "name": "name",
          "type": "string"
        },
        {
          "internalType": "uint256",
          "name": "policy_id",
          "type": "uint256"
        }
      ],
      "name": "getPolicy",
      "outputs": [
        {
          "internalType": "uint256[]",
          "name": "",
          "type": "uint256[]"
        }
      ],
      "stateMutability": "view",
      "type": "function",
      "constant": true
    },
    {
      "inputs": [
        {
          "internalType": "string",
          "name": "name",
          "type": "string"
        },
        {
          "internalType": "uint256[][]",
          "name": "_policy",
          "type": "uint256[][]"
        }
      ],
      "name": "setPolicy",
      "outputs": [],
      "stateMutability": "nonpayable",
      "type": "function"
    },
    {
      "inputs": [
        {
          "internalType": "string",
          "name": "name",
          "type": "string"
        }
      ],
      "name": "gettotalPolicies",
      "outputs": [
        {
          "internalType": "uint256",
          "name": "",
          "type": "uint256"
        }
      ],
      "stateMutability": "view",
      "type": "function",
      "constant": true
    },
    {
      "inputs": [
        {
          "internalType": "string",
          "name": "name",
          "type": "string"
        },
        {
          "components": [
            {
              "components": [
                {
                  "internalType": "uint256[2]",
                  "name": "X",
                  "type": "uint256[2]"
                },
                {
                  "internalType": "uint256[2]",
                  "name": "Y",
                  "type": "uint256[2]"
                }
              ],
              "internalType": "struct G.G2Point",
              "name": "kappa",
              "type": "tuple"
            },
            {
              "components": [
                {
                  "internalType": "uint256",
                  "name": "X",
                  "type": "uint256"
                },
                {
                  "internalType": "uint256",
                  "name": "Y",
                  "type": "uint256"
                }
              ],
              "internalType": "struct G.G1Point",
              "name": "nu",
              "type": "tuple"
            },
            {
              "components": [
                {
                  "internalType": "uint256",
                  "name": "X",
                  "type": "uint256"
                },
                {
                  "internalType": "uint256",
                  "name": "Y",
                  "type": "uint256"
                }
              ],
              "internalType": "struct G.G1Point[2]",
              "name": "sigma",
              "type": "tuple[2]"
            },
            {
              "components": [
                {
                  "internalType": "uint256",
                  "name": "c",
                  "type": "uint256"
                },
                {
                  "internalType": "uint256[]",
                  "name": "rm",
                  "type": "uint256[]"
                },
                {
                  "internalType": "uint256",
                  "name": "rt",
                  "type": "uint256"
                }
              ],
              "internalType": "struct Verify.Proof",
              "name": "proof",
              "type": "tuple"
            }
          ],
          "internalType": "struct Verify.Theta",
          "name": "theta",
          "type": "tuple"
        },
        {
          "internalType": "string[]",
          "name": "public_m",
          "type": "string[]"
        },
        {
          "components": [
            {
              "internalType": "uint256[2]",
              "name": "X",
              "type": "uint256[2]"
            },
            {
              "internalType": "uint256[2]",
              "name": "Y",
              "type": "uint256[2]"
            }
          ],
          "internalType": "struct G.G2Point",
          "name": "Aw",
          "type": "tuple"
        },
        {
          "components": [
            {
              "internalType": "uint256[2]",
              "name": "X",
              "type": "uint256[2]"
            },
            {
              "internalType": "uint256[2]",
              "name": "Y",
              "type": "uint256[2]"
            }
          ],
          "internalType": "struct G.G2Point",
          "name": "aggr",
          "type": "tuple"
        },
        {
          "internalType": "uint256[]",
          "name": "disclose_index",
          "type": "uint256[]"
        },
        {
          "internalType": "string[]",
          "name": "disclose_attr",
          "type": "string[]"
        },
        {
          "internalType": "uint256[]",
          "name": "disclose_attr_enc",
          "type": "uint256[]"
        },
        {
          "internalType": "uint256",
          "name": "_timestamp",
          "type": "uint256"
        }
      ],
      "name": "VerifyCred",
      "outputs": [],
      "stateMutability": "nonpayable",
      "type": "function"
    }
  ],
  "bytecode": "0x60806040523480156200001157600080fd5b506040516200323338038062003233833981016040819052620000349162000068565b60018054336001600160a01b031991821617909155600080549091166001600160a01b03929092169190911790556200009a565b6000602082840312156200007b57600080fd5b81516001600160a01b03811681146200009357600080fd5b9392505050565b61318980620000aa6000396000f3fe608060405234801561001057600080fd5b50600436106100575760003560e01c80633a72e0f01461005c5780635d13b04614610071578063753dfa251461009a57806385b7937a146100bb578063d3b1efe1146100ce575b600080fd5b61006f61006a36600461297a565b6100e1565b005b61008461007f366004612aa0565b610443565b6040516100919190612b1f565b60405180910390f35b6100ad6100a8366004612b32565b6105aa565b604051908152602001610091565b61006f6100c9366004612b6e565b610653565b61006f6100dc366004612b97565b61068c565b6100ed61012c82612c81565b4210158015610106575061010381610258612c98565b42105b61010f57600080fd5b6000805460405163730163bf60e01b81526001600160a01b039091169063730163bf90610140908d90600401612d08565b600060405180830381865afa15801561015d573d6000803e3d6000fd5b505050506040513d6000823e601f3d908101601f191682016040526101859190810190612d95565b9050805184518a6060015160200151518a516101a19190612c98565b6101ab9190612c98565b11156101b657600080fd5b6102168a60405180604001604052808c604001516000600281106101dc576101dc612e30565b602002015181526020018c6020015181525060405180604001604052808b81526020018d600001518152508c606001518589898c8a6107e8565b61021f57600080fd5b6000805460405163a794c77f60e01b81526001600160a01b039091169063a794c77f90610250908e90600401612d08565b600060405180830381865afa15801561026d573d6000803e3d6000fd5b505050506040513d6000823e601f3d908101601f191682016040526102959190810190612e46565b905088516000146102cb576102c28982898589518f6060015160200151516102bd9190612c98565b610ab5565b6102cb57600080fd5b60408051600280825260608201909252600091816020015b60408051808201909152600080825260208201528152602001906001900390816102e35750506040805160028082526060820190925291925060009190602082015b61032d612472565b81526020019060019003908161032557505060408d01515190915061035190610e2f565b8260008151811061036457610364612e30565b602090810291909101015260408c015161038990600160200201518d60200151610ece565b8260018151811061039c5761039c612e30565b60200260200101819052506103b58c600001518a610f37565b816000815181106103c8576103c8612e30565b60200260200101819052506103db611030565b816001815181106103ee576103ee612e30565b602090810291909101015260408c015151610408906110f0565b15801561041a575061041a8282611119565b61042357600080fd5b6104348d8d604001518d8b8b6113f9565b50505050505050505050505050565b6000805460405163144323a760e31b8152606092916001600160a01b03169063a2191d3890610476908790600401612d08565b602060405180830381865afa158015610493573d6000803e3d6000fd5b505050506040513d601f19601f820116820180604052508101906104b79190612ecb565b9050806000036104e25760405162461bcd60e51b81526004016104d990612ee4565b60405180910390fd5b60008311801561050057506000818152600360205260409020548311155b6105405760405162461bcd60e51b8152602060048201526011602482015270139bc81cdd58da081c1bdb1a58de481a59607a1b60448201526064016104d9565b60008181526002602090815260408083208684528252918290208054835181840281018401909452808452909183018282801561059c57602002820191906000526020600020905b815481526020019060010190808311610588575b505050505091505092915050565b6000805460405163144323a760e31b815282916001600160a01b03169063a2191d38906105db908690600401612d08565b602060405180830381865afa1580156105f8573d6000803e3d6000fd5b505050506040513d601f19601f8201168201806040525081019061061c9190612ecb565b90508060000361063e5760405162461bcd60e51b81526004016104d990612ee4565b60009081526003602052604090205492915050565b6001546001600160a01b0316331461066a57600080fd5b600080546001600160a01b0319166001600160a01b0392909216919091179055565b6001546001600160a01b031633146106a357600080fd5b6000805460405163144323a760e31b81526001600160a01b039091169063a2191d38906106d4908690600401612d08565b602060405180830381865afa1580156106f1573d6000803e3d6000fd5b505050506040513d601f19601f820116820180604052508101906107159190612ecb565b9050806000036107375760405162461bcd60e51b81526004016104d990612ee4565b60005b82518110156107e25782818151811061075557610755612e30565b60209081029190910181015160008481526002835260408082206003909452812054919291610785906001612c98565b815260200190815260200160002090805190602001906107a6929190612497565b506000828152600360205260409020546107c1906001612c98565b600083815260036020526040902055806107da81612f09565b91505061073a565b50505050565b6000805460405163d30f2bc360e01b815282916001600160a01b03169063d30f2bc390610819908e90600401612d08565b608060405180830381865afa158015610836573d6000803e3d6000fd5b505050506040513d601f19601f8201168201806040525081019061085a9190612f22565b9050600086516001600160401b038111156108775761087761256f565b6040519080825280602002602001820160405280156108a0578160200160208202803683370190505b50905060005b87518110156109da578681815181106108c1576108c1612e30565b6020026020010151600103610987577f30644e72e131a029b85045b68181585d2833e84879b9709143e1f593f0000001600289838151811061090557610905612e30565b602002602001015160405161091a9190612f3e565b602060405180830381855afa158015610937573d6000803e3d6000fd5b5050506040513d601f19601f8201168201806040525081019061095a9190612ecb565b6109649190612f5a565b82828151811061097657610976612e30565b6020026020010181815250506109c8565b6109a988828151811061099c5761099c612e30565b602002602001015161152f565b8282815181106109bb576109bb612e30565b6020026020010181815250505b806109d281612f09565b9150506108a6565b506109e98a8a848b858a6115b7565b6109f857600092505050610aa8565b6000610a048c8b611a21565b905060008060009054906101000a90046001600160a01b03166001600160a01b03166394dee9cc8f6040518263ffffffff1660e01b8152600401610a489190612d08565b600060405180830381865afa158015610a65573d6000803e3d6000fd5b505050506040513d6000823e601f3d908101601f19168201604052610a8d9190810190612f7c565b9050610a9e848d84848e888c611a67565b8b51149450505050505b9998505050505050505050565b60008086516001610ac69190612c98565b6001600160401b03811115610add57610add61256f565b604051908082528060200260200182016040528015610b2257816020015b6040805180820190915260008082526020820152815260200190600190039081610afb5790505b509050600087516001610b359190612c98565b6001600160401b03811115610b4c57610b4c61256f565b604051908082528060200260200182016040528015610b8557816020015b610b72612472565b815260200190600190039081610b6a5790505b509050610b98610b9361209b565b610e2f565b82600081518110610bab57610bab612e30565b60200260200101819052508581600081518110610bca57610bca612e30565b6020026020010181905250600088516001600160401b03811115610bf057610bf061256f565b604051908082528060200260200182016040528015610c19578160200160208202803683370190505b50905060005b8951811015610d4657888181518110610c3a57610c3a612e30565b6020026020010151600103610d00577f30644e72e131a029b85045b68181585d2833e84879b9709143e1f593f000000160028b8381518110610c7e57610c7e612e30565b6020026020010151604051610c939190612f3e565b602060405180830381855afa158015610cb0573d6000803e3d6000fd5b5050506040513d601f19601f82011682018060405250810190610cd39190612ecb565b610cdd9190612f5a565b828281518110610cef57610cef612e30565b602002602001018181525050610d34565b610d158a828151811061099c5761099c612e30565b828281518110610d2757610d27612e30565b6020026020010181815250505b80610d3e81612f09565b915050610c1f565b5060005b8951811015610e0357610d7d610d5e61209b565b838381518110610d7057610d70612e30565b60200260200101516120c4565b84610d89836001612c98565b81518110610d9957610d99612e30565b602090810291909101015286610daf8288612c98565b81518110610dbf57610dbf612e30565b602002602001015183826001610dd59190612c98565b81518110610de557610de5612e30565b60200260200101819052508080610dfb90612f09565b915050610d4a565b50610e0e8383611119565b610e1e5760009350505050610e26565b600193505050505b95945050505050565b604080518082019091526000808252602082015281517f30644e72e131a029b85045b68181585d97816a916871ca8d3c208c16d87cfd4790158015610e7657506020830151155b15610e965750506040805180820190915260008082526020820152919050565b604051806040016040528084600001518152602001828560200151610ebb9190612f5a565b610ec59084612c81565b90529392505050565b6040805180820190915260008082526020820152610eea6124e2565b8351815260208085015181830152835160408301528301516060808301919091526000908360c08460066107d05a03fa90508080610f2457fe5b5080610f2f57600080fd5b505092915050565b610f3f612472565b82516020808201519151818601518083015190518651808501519051888601519586015195516040805163186a4c7b60e21b81526004810199909952602489019690965260448801949094526064870192909252608486015260a485015260c484019290925260e48301919091525173__BN256G2_______________________________916361a931ec916101048083019260809291908290030181865af4158015610fef573d6000803e3d6000fd5b505050506040513d601f19601f820116820180604052508101906110139190613026565b845160208087015192835291820192909252918152015292915050565b611038612472565b50604080516080810182527f198e9393920d483a7260bfb731fb5d25f1aa493335a9e71297e485b7aef312c28183019081527f1800deef121f1e76426a00665e5c4479674322d4f75edadd46debd5cd992f6ed6060830152815281518083019092527f090689d0585ff075ec9e99ad690c3395bc4b313370b38ef355acdadcd122975b82527f12c85ea5db8c6deb4aab71808dcb408fe3d1e7690c43d37b4ce6cc0166fa7daa60208381019190915281019190915290565b805160009015801561110457506020820151155b1561111157506001919050565b506000919050565b6000815183511461112957600080fd5b8251600061113882600661305c565b90506000816001600160401b038111156111545761115461256f565b60405190808252806020026020018201604052801561117d578160200160208202803683370190505b50905060005b838110156113b85786818151811061119d5761119d612e30565b602002602001015160000151828260066111b7919061305c565b6111c2906000612c98565b815181106111d2576111d2612e30565b6020026020010181815250508681815181106111f0576111f0612e30565b6020026020010151602001518282600661120a919061305c565b611215906001612c98565b8151811061122557611225612e30565b60200260200101818152505085818151811061124357611243612e30565b602090810291909101015151518261125c83600661305c565b611267906002612c98565b8151811061127757611277612e30565b60200260200101818152505085818151811061129557611295612e30565b602090810291909101810151510151826112b083600661305c565b6112bb906003612c98565b815181106112cb576112cb612e30565b6020026020010181815250508581815181106112e9576112e9612e30565b60200260200101516020015160006002811061130757611307612e30565b60200201518261131883600661305c565b611323906004612c98565b8151811061133357611333612e30565b60200260200101818152505085818151811061135157611351612e30565b60200260200101516020015160016002811061136f5761136f612e30565b60200201518261138083600661305c565b61138b906005612c98565b8151811061139b5761139b612e30565b6020908102919091010152806113b081612f09565b915050611183565b506113c1612500565b6000602082602086026020860160086107d05a03fa905080806113e057fe5b50806113eb57600080fd5b505115159695505050505050565b6000805460405163144323a760e31b81526001600160a01b039091169063a2191d389061142a908990600401612d08565b602060405180830381865afa158015611447573d6000803e3d6000fd5b505050506040513d601f19601f8201168201806040525081019061146b9190612ecb565b90508060000361148d5760405162461bcd60e51b81526004016104d990612ee4565b60006040518060800160405280876000600281106114ad576114ad612e30565b6020908102919091015151825288518101519082015260400187600160209081029190910151518252018760016020020151602001518152509050817f25e663d9fde5182920aaea8c429579db3cf23647e596aea912d464030204c7f28287878760405161151e94939291906130d0565b60405180910390a250505050505050565b600081815b81518161ffff1610156115b0576000828261ffff168151811061155957611559612e30565b016020015160f81c905060308110801590611575575060398111155b1561159d57611585603082612c81565b61159085600a61305c565b61159a9190612c98565b93505b50806115a881613132565b915050611534565b5050919050565b60008083518760200151516115cc9190612c98565b6115d7906005612c98565b6001600160401b038111156115ee576115ee61256f565b60405190808252806020026020018201604052801561163357816020015b604080518082019091526000808252602082015281526020019060019003908161160c5790505b5090506000845188602001515161164a9190612c98565b611655906005612c98565b6001600160401b0381111561166c5761166c61256f565b6040519080825280602002602001820160405280156116a557816020015b611692612472565b81526020019060019003908161168a5790505b5090506116b3610b9361209b565b826000815181106116c6576116c6612e30565b60200260200101819052506116d961209b565b826001815181106116ec576116ec612e30565b602002602001018190525061170c610b9361170561209b565b8a516120c4565b8260028151811061171f5761171f612e30565b602002602001018190525061173f61173561209b565b89604001516120c4565b8260038151811061175257611752612e30565b602002602001018190525061176f61176861209b565b89516120c4565b8260048151811061178257611782612e30565b60209081029190910101528851815182906000906117a2576117a2612e30565b602002602001018190525086816001815181106117c1576117c1612e30565b602002602001018190525086816002815181106117e0576117e0612e30565b60200260200101819052506117f3611030565b8160038151811061180657611806612e30565b602090810291909101015288600160200201518160048151811061182c5761182c612e30565b602002602001018190525060008060005b87518b602001515161184f9190612c98565b8110156119f25786818151811061186857611868612e30565b6020026020010151600103611947576118cb610b9361188561209b565b7f30644e72e131a029b85045b68181585d2833e84879b9709143e1f593f00000018b87815181106118b8576118b8612e30565b60200260200101518f60000151096120c4565b856118d7836005612c98565b815181106118e7576118e7612e30565b602002602001018190525088818151811061190457611904612e30565b60200260200101518482600561191a9190612c98565b8151811061192a5761192a612e30565b6020908102919091010152611940836001612c98565b92506119e0565b61196861195261209b565b8c602001518481518110610d7057610d70612e30565b85611974836005612c98565b8151811061198457611984612e30565b60200260200101819052508881815181106119a1576119a1612e30565b6020026020010151848260056119b79190612c98565b815181106119c7576119c7612e30565b60209081029190910101526119dd826001612c98565b91505b806119ea81612f09565b91505061183d565b506119fd8484611119565b611a0e576000945050505050611a17565b60019450505050505b9695505050505050565b6040805180820190915260008082526020820152611a60611a4a846001602002015184516120c4565b84516040850151611a5b91906120c4565b610ece565b9392505050565b600080835185518751611a7a9190612c98565b611a849190612c98565b611a8f90602061305c565b611a9a9060e0612c98565b6001600160401b03811115611ab157611ab161256f565b6040519080825280601f01601f191660200182016040528015611adb576020820181803683370190505b5090506000611af0611aeb61209b565b61210f565b905060005b6020811015611b4f57818160208110611b1057611b10612e30565b1a60f81b838281518110611b2657611b26612e30565b60200101906001600160f81b031916908160001a90535080611b4781612f09565b915050611af5565b50611b60611b5b611030565b61224d565b905060005b6020811015611bc957818160208110611b8057611b80612e30565b1a60f81b83611b90836020612c98565b81518110611ba057611ba0612e30565b60200101906001600160f81b031916908160001a90535080611bc181612f09565b915050611b65565b50611bd38a61224d565b905060005b6020811015611c3c57818160208110611bf357611bf3612e30565b1a60f81b83611c03836040612c98565b81518110611c1357611c13612e30565b60200101906001600160f81b031916908160001a90535080611c3481612f09565b915050611bd8565b50611c4e8960005b602002015161224d565b905060005b6020811015611cb757818160208110611c6e57611c6e612e30565b1a60f81b83611c7e836060612c98565b81518110611c8e57611c8e612e30565b60200101906001600160f81b031916908160001a90535080611caf81612f09565b915050611c53565b50611cc18861210f565b905060005b6020811015611d2a57818160208110611ce157611ce1612e30565b1a60f81b83611cf1836080612c98565b81518110611d0157611d01612e30565b60200101906001600160f81b031916908160001a90535080611d2281612f09565b915050611cc6565b50611d36896001611c44565b905060005b6020811015611d9f57818160208110611d5657611d56612e30565b1a60f81b83611d668360a0612c98565b81518110611d7657611d76612e30565b60200101906001600160f81b031916908160001a90535080611d9781612f09565b915050611d3b565b5060c060005b8851811015611e5857611dd0898281518110611dc357611dc3612e30565b602002602001015161210f565b925060005b6020811015611e3857838160208110611df057611df0612e30565b1a60f81b85611dff8584612c98565b81518110611e0f57611e0f612e30565b60200101906001600160f81b031916908160001a90535080611e3081612f09565b915050611dd5565b50611e44826020612c98565b915080611e5081612f09565b915050611da5565b5060005b8751811015611f0f57611e87888281518110611e7a57611e7a612e30565b602002602001015161224d565b925060005b6020811015611eef57838160208110611ea757611ea7612e30565b1a60f81b85611eb68584612c98565b81518110611ec657611ec6612e30565b60200101906001600160f81b031916908160001a90535080611ee781612f09565b915050611e8c565b50611efb826020612c98565b915080611f0781612f09565b915050611e5c565b5060005b8651811015611fc157868181518110611f2e57611f2e612e30565b602002602001015160001b925060005b6020811015611fa157838160208110611f5957611f59612e30565b1a60f81b85611f688584612c98565b81518110611f7857611f78612e30565b60200101906001600160f81b031916908160001a90535080611f9981612f09565b915050611f3e565b50611fad826020612c98565b915080611fb981612f09565b915050611f13565b5084915060005b602081101561202b57828160208110611fe357611fe3612e30565b1a60f81b84611ff28484612c98565b8151811061200257612002612e30565b60200101906001600160f81b031916908160001a9053508061202381612f09565b915050611fc8565b50612037816020612c98565b9050600060028460405161204b9190612f3e565b602060405180830381855afa158015612068573d6000803e3d6000fd5b5050506040513d601f19601f8201168201806040525081019061208b9190612ecb565b9c9b505050505050505050505050565b604080518082018252600080825260209182015281518083019092526001825260029082015290565b60408051808201909152600080825260208201526120e061251e565b835181526020808501519082015260408101839052600060608360808460076107d05a03fa90508080610f2457fe5b805160208083015160408051818152606081018252600094938592908201818036833701905050905060005b60208110156121955783816020811061215657612156612e30565b1a60f81b82828151811061216c5761216c612e30565b60200101906001600160f81b031916908160001a9053508061218d81612f09565b91505061213b565b5060005b60208110156121fd578281602081106121b4576121b4612e30565b1a60f81b826121c4836020612c98565b815181106121d4576121d4612e30565b60200101906001600160f81b031916908160001a905350806121f581612f09565b915050612199565b60028260405161220d9190612f3e565b602060405180830381855afa15801561222a573d6000803e3d6000fd5b5050506040513d601f19601f82011682018060405250810190611a179190612ecb565b60408051608080825260a082019092526000918291906020820181803683370190505083516020015190915060005b60208110156122d65781816020811061229757612297612e30565b1a60f81b8382815181106122ad576122ad612e30565b60200101906001600160f81b031916908160001a905350806122ce81612f09565b91505061227c565b505082515160005b6020811015612342578181602081106122f9576122f9612e30565b1a60f81b83612309836020612c98565b8151811061231957612319612e30565b60200101906001600160f81b031916908160001a9053508061233a81612f09565b9150506122de565b5050602083810151015160005b60208110156123b35781816020811061236a5761236a612e30565b1a60f81b8361237a836040612c98565b8151811061238a5761238a612e30565b60200101906001600160f81b031916908160001a905350806123ab81612f09565b91505061234f565b505060208301515160005b6020811015612422578181602081106123d9576123d9612e30565b1a60f81b836123e9836060612c98565b815181106123f9576123f9612e30565b60200101906001600160f81b031916908160001a9053508061241a81612f09565b9150506123be565b6002836040516124329190612f3e565b602060405180830381855afa15801561244f573d6000803e3d6000fd5b5050506040513d601f19601f82011682018060405250810190610e269190612ecb565b604051806040016040528061248561253c565b815260200161249261253c565b905290565b8280548282559060005260206000209081019282156124d2579160200282015b828111156124d25782518255916020019190600101906124b7565b506124de92915061255a565b5090565b60405180608001604052806004906020820280368337509192915050565b60405180602001604052806001906020820280368337509192915050565b60405180606001604052806003906020820280368337509192915050565b60405180604001604052806002906020820280368337509192915050565b5b808211156124de576000815560010161255b565b634e487b7160e01b600052604160045260246000fd5b604080519081016001600160401b03811182821017156125a7576125a761256f565b60405290565b604051608081016001600160401b03811182821017156125a7576125a761256f565b604051601f8201601f191681016001600160401b03811182821017156125f7576125f761256f565b604052919050565b600082601f83011261261057600080fd5b81356001600160401b038111156126295761262961256f565b61263c601f8201601f19166020016125cf565b81815284602083860101111561265157600080fd5b816020850160208301376000918101602001919091529392505050565b600082601f83011261267f57600080fd5b612687612585565b80604084018581111561269957600080fd5b845b818110156126b357803584526020938401930161269b565b509095945050505050565b6000608082840312156126d057600080fd5b6126d8612585565b90506126e4838361266e565b81526126f3836040840161266e565b602082015292915050565b60006040828403121561271057600080fd5b612718612585565b9050813581526020820135602082015292915050565b60006001600160401b038211156127475761274761256f565b5060051b60200190565b600082601f83011261276257600080fd5b813560206127776127728361272e565b6125cf565b82815260059290921b8401810191818101908684111561279657600080fd5b8286015b848110156127b1578035835291830191830161279a565b509695505050505050565b6000606082840312156127ce57600080fd5b604051606081016001600160401b0382821081831117156127f1576127f161256f565b8160405282935084358352602085013591508082111561281057600080fd5b5061281d85828601612751565b602083015250604083013560408201525092915050565b6000610160828403121561284757600080fd5b61284f6125ad565b905061285b83836126be565b815261286a83608084016126fe565b602081818401528460df85011261288057600080fd5b612888612585565b91508161014085018681111561289d57600080fd5b60c086015b818110156128c2576128b488826126fe565b8552938301936040016128a2565b506040850191909152359150506001600160401b038111156128e357600080fd5b6128ef848285016127bc565b60608301525092915050565b600082601f83011261290c57600080fd5b8135602061291c6127728361272e565b82815260059290921b8401810191818101908684111561293b57600080fd5b8286015b848110156127b15780356001600160401b0381111561295e5760008081fd5b61296c8986838b01016125ff565b84525091830191830161293f565b60008060008060008060008060006101e08a8c03121561299957600080fd5b89356001600160401b03808211156129b057600080fd5b6129bc8d838e016125ff565b9a5060208c01359150808211156129d257600080fd5b6129de8d838e01612834565b995060408c01359150808211156129f457600080fd5b612a008d838e016128fb565b9850612a0f8d60608e016126be565b9750612a1e8d60e08e016126be565b96506101608c0135915080821115612a3557600080fd5b612a418d838e01612751565b95506101808c0135915080821115612a5857600080fd5b612a648d838e016128fb565b94506101a08c0135915080821115612a7b57600080fd5b50612a888c828d01612751565b9250506101c08a013590509295985092959850929598565b60008060408385031215612ab357600080fd5b82356001600160401b03811115612ac957600080fd5b612ad5858286016125ff565b95602094909401359450505050565b600081518084526020808501945080840160005b83811015612b1457815187529582019590820190600101612af8565b509495945050505050565b602081526000611a606020830184612ae4565b600060208284031215612b4457600080fd5b81356001600160401b03811115612b5a57600080fd5b612b66848285016125ff565b949350505050565b600060208284031215612b8057600080fd5b81356001600160a01b0381168114611a6057600080fd5b60008060408385031215612baa57600080fd5b82356001600160401b0380821115612bc157600080fd5b612bcd868387016125ff565b9350602091508185013581811115612be457600080fd5b8501601f81018713612bf557600080fd5b8035612c036127728261272e565b81815260059190911b82018401908481019089831115612c2257600080fd5b8584015b83811015612c5a57803586811115612c3e5760008081fd5b612c4c8c8983890101612751565b845250918601918601612c26565b508096505050505050509250929050565b634e487b7160e01b600052601160045260246000fd5b600082821015612c9357612c93612c6b565b500390565b60008219821115612cab57612cab612c6b565b500190565b60005b83811015612ccb578181015183820152602001612cb3565b838111156107e25750506000910152565b60008151808452612cf4816020860160208601612cb0565b601f01601f19169290920160200192915050565b602081526000611a606020830184612cdc565b600082601f830112612d2c57600080fd5b612d34612585565b806040840185811115612d4657600080fd5b845b818110156126b3578051845260209384019301612d48565b600060808284031215612d7257600080fd5b612d7a612585565b9050612d868383612d1b565b81526126f38360408401612d1b565b60006020808385031215612da857600080fd5b82516001600160401b03811115612dbe57600080fd5b8301601f81018513612dcf57600080fd5b8051612ddd6127728261272e565b81815260079190911b82018301908381019087831115612dfc57600080fd5b928401925b82841015612e2557612e138885612d60565b82528482019150608084019350612e01565b979650505050505050565b634e487b7160e01b600052603260045260246000fd5b60006020808385031215612e5957600080fd5b82516001600160401b03811115612e6f57600080fd5b8301601f81018513612e8057600080fd5b8051612e8e6127728261272e565b81815260059190911b82018301908381019087831115612ead57600080fd5b928401925b82841015612e2557835182529284019290840190612eb2565b600060208284031215612edd57600080fd5b5051919050565b6020808252600b908201526a27379039bab1b41020a19760a91b604082015260600190565b600060018201612f1b57612f1b612c6b565b5060010190565b600060808284031215612f3457600080fd5b611a608383612d60565b60008251612f50818460208701612cb0565b9190910192915050565b600082612f7757634e487b7160e01b600052601260045260246000fd5b500690565b60006020808385031215612f8f57600080fd5b82516001600160401b03811115612fa557600080fd5b8301601f81018513612fb657600080fd5b8051612fc46127728261272e565b81815260069190911b82018301908381019087831115612fe357600080fd5b928401925b82841015612e2557604084890312156130015760008081fd5b613009612585565b845181528585015186820152825260409093019290840190612fe8565b6000806000806080858703121561303c57600080fd5b505082516020840151604085015160609095015191969095509092509050565b600081600019048311821515161561307657613076612c6b565b500290565b600081518084526020808501808196508360051b8101915082860160005b858110156130c35782840389526130b1848351612cdc565b98850198935090840190600101613099565b5091979650505050505050565b60008186825b60048110156130f55781518352602092830192909101906001016130d6565b50505060e0608083015261310c60e083018661307b565b82810360a084015261311e8186612ae4565b905082810360c0840152612e25818561307b565b600061ffff80831681810361314957613149612c6b565b600101939250505056fea2646970667358221220843d54b30dc5bca1babbe2c445440e82eb1eb5038d41bf8e0d3dcfbb3501ba7964736f6c634300080d0033",
  "immutableReferences": {},
  "source": "// SPDX-License-Identifier: GPL-3.0\npragma solidity >=0.7.0 <0.9.0;\npragma experimental ABIEncoderV2;\n\nimport { G } from \"../libraries/G.sol\";\nimport {Params} from \"./Params.sol\";\n\ncontract Verify {\n\n  Params private params;\n  address private owner;\n\n    constructor(Params _params) {\n        owner = msg.sender;\n        params = _params;\n    }\n    modifier onlyOwner {\n        require(msg.sender == owner);\n        _;\n    }\n \n  function set_params(address addr) public onlyOwner {\n    params = Params(addr);\n  }\n\n  mapping(uint256 => mapping(uint256 => uint256[])) private policy;\n  mapping(uint256 => uint256) private policy_ids;\n  \n  function getPolicy(string memory name, uint256 policy_id) public view returns (uint256[] memory) {\n        uint256 id = params.getMapCredentials(name);\n        require(id != 0, \"No such AC.\");\n        require(policy_id > 0 && policy_id <= policy_ids[id], \"No such policy id\");\n        return policy[id][policy_id];\n    }\n\n  function setPolicy(string memory name, uint256[][] memory _policy) public onlyOwner {\n        uint256 id = params.getMapCredentials(name);\n        require(id != 0, \"No such AC.\");\n        for (uint256 i= 0; i <_policy.length; i++) {\n          policy[id][1+policy_ids[id]] = _policy[i];\n          policy_ids[id] = policy_ids[id] + 1; // total count of policy ids will be here for a title. then u can use what policy's are needed from getPolicy for that title.\n        }\n  }\n\n  function gettotalPolicies(string memory name) public view returns (uint256) {\n        uint256 id = params.getMapCredentials(name);\n        require(id != 0, \"No such AC.\");\n        return policy_ids[id];\n  }\n\n    struct Theta {\n        G.G2Point kappa;\n        G.G1Point nu;\n        G.G1Point[2] sigma;\n        Proof proof;\n    }\n   \n    struct Proof {\n        uint256 c;\n        uint256[] rm;\n        uint256 rt;\n    }\n\n  event emitVerify(uint256 indexed id, uint256[4] credential, string[] public_m, uint256[] disclosed_indexes, string[] disclosed_attributes);\n\n  function stringToUint256(string memory s) private pure returns (uint256 result) {\n    bytes memory b = bytes(s);\n    result = 0;\n    for (uint16 i = 0; i < b.length; i++) {\n      uint c = uint8(b[i]);\n      if (c >= 48 && c <= 57) {\n        result = result * 10 + (c - 48);\n      }\n    }\n  }\n    \n\n  function VerifyCred(string memory name, Theta memory theta, string[] memory public_m, G.G2Point memory Aw, G.G2Point memory aggr, uint256[] memory disclose_index, string[] memory disclose_attr, uint256[] memory disclose_attr_enc, uint256 _timestamp) public {\n    \n    require(block.timestamp >= _timestamp - 300 && block.timestamp < _timestamp + 600);\n    G.G2Point[] memory beta = params.get_beta(name);\n    require(public_m.length + theta.proof.rm.length + disclose_attr.length <= beta.length);\n    \n    require(verify_pi_v(name, [theta.sigma[0], theta.nu], [Aw, theta.kappa], theta.proof, beta, disclose_attr, disclose_attr_enc, disclose_index, _timestamp));\n    uint256[] memory public_m_enc = params.get_public_m_encoding(name);\n    if(public_m.length != 0) {\n      require(check_aggr(public_m, public_m_enc, aggr, beta, theta.proof.rm.length+disclose_attr.length));\n    }\n    \n    G.G1Point[] memory coord1 = new G.G1Point[](2);\n    G.G2Point[] memory coord2 = new G.G2Point[](2);\n    coord1[0] = G.g1neg(theta.sigma[0]);\n    coord1[1] = G.g1add(theta.sigma[1], theta.nu);\n    coord2[0] = G.g2add(theta.kappa, aggr);\n    coord2[1] = G.P2();\n    require(!G.isinf(theta.sigma[0]) && G.pairing(coord1, coord2));\n    logging(name, theta.sigma, public_m, disclose_index, disclose_attr);\n  }\n\n  function logging(string memory name, G.G1Point[2] memory sigma, string[] memory public_m, uint256[] memory disclose_index, string[] memory disclose_attr) private {\n    uint256 id = params.getMapCredentials(name);\n    require(id != 0, \"No such AC.\");\n    uint256[4] memory credential = [sigma[0].X, sigma[0].Y, sigma[1].X, sigma[1].Y];\n    emit emitVerify(id, credential, public_m, disclose_index, disclose_attr);\n  }\n \n  function check_aggr(string[] memory public_m, uint256[] memory public_m_enc, G.G2Point memory aggr, G.G2Point[] memory beta, uint256 priv_attr_len) view internal returns (bool) {\n    G.G1Point[] memory AA = new G.G1Point[](public_m.length+1);\n    G.G2Point[] memory AB = new G.G2Point[](public_m.length+1);\n    AA[0] = G.g1neg(G.P1());\n    AB[0] = aggr;\n    uint256[] memory uint_public_m = new uint256[](public_m.length);\n    for(uint256 i = 0; i < public_m.length; i++) {\n      if (public_m_enc[i] == 1) {\n        uint_public_m[i] = uint256(sha256(bytes(public_m[i])))%G.N();\n      }\n      else{\n        uint_public_m[i] = stringToUint256(public_m[i]);\n      }\n    }\n    for(uint256 i = 0; i < public_m.length; i++) {\n      AA[i+1] = G.g1mul(G.P1(), uint_public_m[i]);\n      AB[i+1] = beta[priv_attr_len + i];\n    }\n    if (!G.pairing(AA, AB)) {\n      return false;\n    }\n    return true;\n  }\n\n  function calculate_Bw(G.G1Point[2] memory h_nu, Proof memory proof) private view returns(G.G1Point memory) {\n    return (G.g1add(G.g1mul(h_nu[1], proof.c), G.g1mul(h_nu[0], proof.rt)));\n  }\n\n  function verify_pi_v(string memory name, G.G1Point[2] memory h_nu, G.G2Point[2] memory Aw_kappa, Proof memory proof, G.G2Point[] memory beta, string[] memory disclose_attr, uint256[] memory disclose_attr_enc, uint256[] memory disclose_index, uint256 _timestamp) internal view returns (bool) {\n    G.G2Point memory alpha = params.get_alpha(name);\n\n    uint256[] memory uint_disclose_attr = new uint256[](disclose_attr.length);\n    for(uint256 i = 0; i< disclose_attr.length; i++) {\n      if (disclose_attr_enc[i] == 1) {\n        uint_disclose_attr[i] = uint256(sha256(bytes(disclose_attr[i])))%G.N();\n      }\n      else{\n        uint_disclose_attr[i] = stringToUint256(disclose_attr[i]);\n      }\n    }\n\n    if(!check_Aw(Aw_kappa, proof, alpha, beta, uint_disclose_attr, disclose_index)) {\n      return false;\n    }\n\n    G.G1Point memory Bw = calculate_Bw(h_nu, proof);\n    G.G1Point[] memory hs = params.get_hs(name);\n    return proof.c == ToChallenge(alpha, Aw_kappa, Bw, hs, beta, uint_disclose_attr, _timestamp);\n  }\n  \n  function check_Aw(G.G2Point[2] memory Aw_kappa, Proof memory proof, G.G2Point memory alpha, G.G2Point[] memory beta, uint256[] memory disclose_attr, uint256[] memory disclose_index) private view returns(bool) {\n    G.G1Point[] memory AA = new G.G1Point[](proof.rm.length+disclose_attr.length+5);\n    G.G2Point[] memory AB = new G.G2Point[](proof.rm.length+disclose_attr.length+5);\n    AA[0] = G.g1neg(G.P1());\n    AA[1] = G.P1();\n    AA[2] = G.g1neg(G.g1mul(G.P1(), proof.c));\n    AA[3] = G.g1mul(G.P1(), proof.rt);\n    AA[4] = G.g1mul(G.P1(), proof.c);\n    AB[0] = Aw_kappa[0];\n    AB[1] = alpha;\n    AB[2] = alpha;\n    AB[3] = G.P2();\n    AB[4] = Aw_kappa[1];\n\n    uint256 k = 0;\n    uint256 j = 0;\n    for(uint256 i=0; i< proof.rm.length + disclose_attr.length; i++) {\n      if(disclose_index[i] == 1) {\n        AA[i+5] = G.g1neg(G.g1mul(G.P1(), mulmod(proof.c, disclose_attr[k], G.N())));\n        AB[i+5] = beta[i];\n        k = k +1;\n      }\n      else {\n        AA[i+5] = G.g1mul(G.P1(), proof.rm[j]);\n        AB[i+5] = beta[i];\n        j = j + 1;\n      }   \n    }\n    if (!G.pairing(AA, AB)) {\n      return false;\n    }\n    return true;\n  }\n\n  function ToChallenge(G.G2Point memory alpha, G.G2Point[2] memory Aw_kappa, G.G1Point memory Bw, G.G1Point[] memory _hs, G.G2Point[] memory beta, uint256[] memory disclose_attr, uint256 _timestamp) private pure returns (uint256) {\n    bytes memory result = new bytes(224 + (_hs.length + beta.length + disclose_attr.length) * 32);\n  \n    bytes32 X =  G.G1_to_binary256(G.P1());\n    for (uint256 i=0; i < 32 ; i++) {\n      result[i] = X[i];\n    }\n    X =  G.G2_to_binary256(G.P2());\n    for (uint256 i=0; i< 32 ; i++) {\n      result[i+32] = X[i];\n    }\n    X =  G.G2_to_binary256(alpha);\n    for (uint256 i=0; i< 32 ; i++) {\n      result[i+64] = X[i];\n    }\n    X =  G.G2_to_binary256(Aw_kappa[0]);\n    for (uint256 i=0; i< 32 ; i++) {\n      result[i+96] = X[i];\n    }\n    X =  G.G1_to_binary256(Bw);\n    for (uint256 i=0; i< 32 ; i++) {\n      result[i+128] = X[i];\n    }\n    X =  G.G2_to_binary256(Aw_kappa[1]);\n    for (uint256 i=0; i< 32 ; i++) {\n      result[i+160] = X[i];\n    }\n  \n    uint256 location = 192;\n    for(uint256 i=0; i< _hs.length; i++) {\n      X = G.G1_to_binary256(_hs[i]);\n      for (uint256 j=0; j< 32 ; j++) {\n        result[j+location] = X[j];\n      }\n      location = location + 32;\n    }\n    for(uint256 i = 0; i < beta.length; i++) {\n      X = G.G2_to_binary256(beta[i]);\n      for (uint256 j=0; j< 32 ; j++) {\n        result[j+location] = X[j];\n      }\n      location = location + 32;\n    }\n    for(uint256 i = 0; i < disclose_attr.length; i++) {\n      X = bytes32(disclose_attr[i]);\n      for (uint256 j=0; j< 32 ; j++) {\n        result[j+location] = X[j];\n      }\n      location = location + 32;\n    }\n    X = bytes32(_timestamp);\n    for(uint256 i = 0; i < 32; i++) {\n      result[i+location] = X[i];\n    }\n    location = location + 32;\n\n    bytes32 Chash =  sha256(result);\n    return uint256(Chash);\n  }\n}\n",
  "sourcePath": "/home/neel/acad/DTRAC/ravc-main/contracts/Verify.sol",
  "compiler": {
    "name": "solc",
    "version": "0.8.13+commit.abaa5c0e.Emscripten.clang"
  },
  "schemaVersion": "3.4.13",
  "updatedAt": "2023-06-09T10:07:55.007Z",
  "networkType": "ethereum",
  "devdoc": {
    "kind": "dev",
    "methods": {},
    "version": 1
  },
  "userdoc": {
    "kind": "user",
    "methods": {},
    "version": 1
  }
}